:400000000040002011000000F5060000F506000080B500AF024A034B1B68136000F074FBBC760040FA46004008000223000008760800032300001076080004230000287668
:4000400008000523000030760500062300002070050007230000307005000823000060700500FE230000707019000A220000C8491000FE220000205180050C220000000865
:4000800080010D220000000E80010E220000001480030F22000000188000102200000043800011220000004580001222000000468000FE2200000047070014230000005293
:4000C000070015230000185207001623000020520700172300003052060018230000605207001923000078522000FE230000706408001B230000005180001C230000000077
:4001000080001D230000800080001E230000000280001F23000080028000202300000004800021230000800480002223000000068000232300008006800024230000001675
:40014000800025230000801610002623000010501000272300000050800028230000004D800029230000804D80002A230000004C80002B230000804C80002C2300008047C4
:4001800080002D230000804680002E230000804580002F23000000448000302300008044800031230000801B80003223000080158000332300000017800034230000801732
:4001C0008000352300000007800036230000800780003723000000058000382300008005800039230000800D80003A230000000380003B230000800380003C230000800F69
:4002000080003D230000000180003E230000800180003F230000004980004023000080498000412300000048800042230000804880004323000080438000442300000042F9
:4002400080004523000080428000462300000041800047230000804180004823000000408000FE23000080400100000001000000010000000048014001000000004800405E
:400280000100000000200140010000000020004010B5054C237833B9044B13B10448AFF300800123237010BD70C1FF1F0000000098140000084B10B51BB108480849AFF3B7
:4002C00000800848036803B910BD074B002BFBD0BDE81040184700BF000000009814000074C1FF1F08C1FF1F0000000080B500AF00F06AFD00F0E8FF6E4B09221A7062B661
:4003000000F084F96C4800F01FF900F0B3F96B4B1B780A2B00F2C38001A252F823F000BF4D0300006503000083030000A1030000230400004104000005040000E703000045
:400340008B040000770400005F0400005C4B5A221A70584B1B78082B03D15A4800F0F4F8A1E0A0E0002000F061FF554B4B221A70504B1B78082B03D1534800F0CFF892E0A7
:4003800091E0012000F052FF4D4B4B221A70494B1B78082B03D14D4800F0D6F883E082E0464B5B78184600F05FFF444B9B78184600F06AFF424B4B221A703E4B1B78082B59
:4003C00010D1434800F0AAF83C4B5B78184600F0CBF83F4800F0A2F8384B9B78184600F0C3F860E05FE0002000F05EFF344B4B221A70304B1B78082B03D1364800F0A4F863
:4004000051E050E0012000F04FFF2D4B4B221A70284B1B78082B03D12F4800F095F842E041E0022000F040FF254B4B221A70214B1B78082B03D1294800F086F833E032E087
:40044000032000F031FF1E4B4B221A70194B1B78082B03D1224800F077F824E023E0184B45221A70134B1B78082B03D11D4800F06BF818E017E0124B4B221A700D4B092241
:400480001A70194800F060F80DE00D4B4B221A70084B08221A70154800F056F803E0084B45221A7000BF054B00221A7000F000F92BE700BFA9C1FF1F9C1400009CC1FF1FDC
:4004C000A4C1FF1FAC140000B8140000C4140000CC140000D8140000E8140000F814000004150000141500001C1500003015000080B584B000AF0346FB7100F043FF034641
:40050000FB73FB7B03F00403002BF6D1FB79184600F044FF1037BD4680BD00BF80B584B000AF78607B68FB6006E0FB685A1CFA601B781846FFF7DCFFFB681B78002BF4D1B1
:400540001037BD4680BD00BF80B582B000AF78607868FFF7E3FF0D20FFF7CAFF0A20FFF7C7FF0837BD4680BD80B586B000AF786007F10C037868194600F008F807F10C030F
:400580001846FFF7CBFF1837BD4680BD80B487B000AF786039604FF070437B611C23FB740023BB740023BB7423E07A687B691A40FB7C22FA03F3FB60FB68092B08D8BB7C2E
:4005C0003A681344FA68D2B23032D2B21A7007E0BB7C3A681344FA68D2B23732D2B21A707B691B097B61FB7C043BFB74BB7C0133BB74BB7C072BD8D93B68083300221A70F1
:400600001C37BD465DF8047B704700BF80B500AF164B00221A70154B00225A70134B00229A70124B0022DA70104B00221A71104B00221A700E4B00225A700D4B00229A70B2
:400640000B4B0022DA700A4B00221A71502000F06FFD0648052100F07DFD0548052100F0A3FD00F019FD00F03DFD80BDA4C1FF1F9CC1FF1F80B500AF00BF00F001FD0346C4
:4006800003F02003002BF8D000BF00F0F9FC034603F02003002BF8D100BF00F0F1FC034603F01003002BF8D000F0B4FD80BD00BF80B500AF00BF00F0E3FC00BF00F0E0FCC2
:4006C000034603F00203002BF8D000BF00F0D8FC034603F00203002BF8D100BF00F0D0FC034603F00103002BF8D000F0D5FC00F085FD80BD80B500AF00F096FE03461B68BC
:400700000C2B00D1FEE7FEE780B586B000AF224B7B61224B3B61204B7B6135E03B691B68FB603B695B68BB603B699B683B6000237B600CE0FB681A68BB681A60BB68043313
:40074000BB60FB680433FB607B6804337B607A683B689A42EED13B69DB683B6000237B6008E0BB6800221A60BB680433BB607B6804337B607A683B689A42F2D13B691033B8
:400780003B617B69013B7B617B69002BC6D100F051FEFFF7ABFDFEE7010000008816000080B582B000AF174B174A1A60174A174B1B6843F40073136000237B600FE07B6814
:4007C000032B04D8124A7B6852F8233000E0114B11497A6841F822307B6801337B607B682F2BECD90D4B1B78DAB20D4B1A700D4B094A1A6000F08AF90B4B00221A600837FA
:40080000BD4680BD0CED00E00004FA0514ED00E000000000F506000000C0FF1FBC76004004C1FF1F08ED00E000C1FF1F80B584B000AFF860B9607A60F868B9687A6800F023
:400840001FFE1037BD4680BD80B483B000AF0346FB71FEE780B483B000AF434B00221A60424B10221A70424B01221A70414B00221A70414B4FF410721A80404B01221A7006
:400880003F4B03221A703F4B3F4A92B21A803F4B47F608021A803E4B00221A803D4B4FF480421A803C4B09221A703C4B0B221A703B4B13221A703B4B1A221A70BFF35F8F8C
:4008C000394B01221A70BFF35F8F00BF2A4B1B889BB2002BFAD100237B600DE07B68DA00324B13441946324A7B6852F823309BB20B807B6801337B607B68472BEED9BFF39E
:400900005F8F294B01221A70BFF35F8F00BF294B1B78DBB203F00103002BF8D100BF264B1B78DBB203F00103002BF8D100BF234B1B78DBB203F00103002BF8D100BF204B2D
:400940001B78DBB203F00103002BF8D100BF1D4B1B78DBB203F00103002BF8D10C37BD465DF8047B704700BF90C1FF1F00760040107000401970004000780040027800408A
:4009800003780040047800402800000006780040047600400676004029700040397000406970004079700040147000400C78004040150000187000402870004038700040FB
:4009C000687000407870004080B582B000AF304B4FF49C721A802F4B18221A702E4B02221A704FF0402308221A702C4B03221A702B4B2C4A1278D2B21A702B4B08221A809C
:400A00002A4B41F251221A800023FB7019237B6013E0FB785B00DAB2254B1B78DBB203F00103DBB21343DBB203F00303FB70782000F0EAFC7B68013B7B607B68002B02D06C
:400A4000FB78032BE5D17B68002B02D10320FFF7FBFE184B4FF480721A80164B07221A70154B00221A70154B48221A70114B00221A70134B02221A70124A124B1B78DBB299
:400A800043F00103DBB213700837BD4680BD00BF80400040824000400043004000420040A146004008010049224200402042004025420040044000400640004008400040B2
:400AC00001400040A243004080B483B000AF0B4B1B78FB710A4AFB7903F00703DBB21370084AFB791B09DBB21370074B44221A700C37BD465DF8047B704700BFCF0100492B
:400B00006E5800406F5800407658004080B500AF72B6364B01221A70FFF756FF334B81221A70334A324B1B78DBB243F00403DBB21370FFF78FFE2F4A2E4B1B78DBB243F03E
:400B40000203DBB213702C4A2B4B1B78DBB243F00203DBB21370294A284B1B78DBB243F04003DBB21370264A254B1B78DBB243F01003DBB21370234823490822FFF756FEDF
:400B8000224823490A22FFF751FE224822490822FFF74CFE214822490822FFF747FE214821490822FFF742FE204821490822FFF73DFE204820490822FFF738FE1F4820491F
:400BC0000A22FFF733FE1F4A1E4B1B78DBB243F00803DBB213701C4B01221A70FFF774FF1A4806490E22FFF721FE80BD00480040E84600400350014013500140A043004061
:400C0000C24300400251004078160048C051004080160048F25100408C1600481251004094160048325100409C16004842510040A416004852510040AC1600486051004065
:400C4000B41600482243004004000840B043004080B483B000AF0346FB7101BE0C37BD465DF8047B704700BF80B584B000AF03463960FB710F4B1B68FB60FB791F2B02D9ED
:400C80000020FFF7E5FFFB7903F01F0310339B00FA6813441B68BB60FB7903F01F0310339B00FA6813443A681A60BB6818461037BD4680BD08ED00E080B582B000AF034604
:400CC0000A46FB711346BB71BB79072B02D90020FFF7BEFFFB791F2B02D90020FFF7B8FFFB7903F01F0303F1604303F56443BA795201D2B21A700837BD4680BD80B500AF83
:400D0000154B01221A70154B81221A70144B50221A70144B03221A70134B00221A70134B4FF400421A600F200721FFF7C5FF0F200F49FFF799FF0F4B10221A700E4B002292
:400D40001A700E4B00221A700D4B00221A70502000F0EEF980BD00BFD6490040C8490040CA490040DB490040DC49004080E100E0F50D0000AAC1FF1FADC1FF1FACC1FF1FEE
:400D8000B4C1FF1F80B582B000AF00F045FB0346FB710B4A0A4B1B78DBB243F00403DBB21370084A074B1B78DBB243F00403DBB21370FB79184600F033FB0837BD4680BD14
:400DC000A5430040B543004080B500AF074B1B78002B04D1FFF792FF044B01221A70FFF7D1FF034B4FF400421A6080BD98C1FF1F00E100E080B582B000AF964B1B78FB71C9
:400E0000954B1B78DBB203F04003DBB2002B40F01E81914B1B78DBB203F01003DBB2002B00F01281FB7903F02003002B09D1FB7903F00103002B24D0FB7903F00803002B02
:400E40001FD0854B1B78DBB2112B1AD1834A834B1B78DBB223F01003DBB21370804B1B78DBB223F02003DAB27D4B1A707C4B1B78DBB243F01003DAB2794B1A70764B102282
:400E80001A70FB7903F00103002B00F0E080FB7903F00803002B54D0724B1B78DBB203F00103002B36D0704B1B78DAB26F4B1B78DBB29A421CD26B4A6D4B1B686A4909785A
:400EC000C9B20B441B78DBB21370624B14221A70654B1B78DBB20133DAB2634B1A70604B1B78DBB243F00203DAB25D4B1A700DE05C4BFF221A70574B14221A70584B1B78B8
:400F0000DBB243F00603DAB2554B1A70524B12221A709CE04F4B10221A704F4B11221A704F4B1B78DBB243F02003DAB24C4B1A704A4A4A4B1B78DBB243F01003DBB2137052
:400F400085E0454B1B78DBB2112B29D1494B1B78DAB2494B1B78DBB29A4215D2414B1B78BB713C4B10221A70444B1B68414A1278D2B21344BA791A703E4B1B78DBB20133D2
:400F8000DAB23C4B1A7062E0324B00221A70344B1B78DBB243F04003DAB2314B1A7056E02D4B1B78DBB2122B4AD1FB7903F00203002B2BD12C4B1B78DAB22C4B1B78DBB29C
:400FC0009A4214D2274A2A4B1B6827490978C9B20B441B78DBB213701E4B04221A70224B1B78DBB20133DAB21F4B1A702FE01D4BFF221A70174B04221A70194B1B78DBB256
:4010000043F00403DAB2164B1A7020E0154BFF221A70104B00221A70114B1B78DBB223F00203DAB20E4B1A700D4B1B78DBB243F00103DAB20A4B1A70074B10221A7006E0DC
:401040000020FFF705FE02E0034B10221A700837BD4680BDD7490040AAC1FF1FD6490040ADC1FF1FD8490040ACC1FF1FBCC1FF1FB0C1FF1FB4C1FF1FAEC1FF1FB8C1FF1F4B
:4010800080B400AF034B1B78DBB21846BD465DF8047B7047ADC1FF1F80B483B000AF0E4B4FF400421A600D4B1B78DBB203F00F03FB710A4B1B78DBB223F00D03DAB2074B9A
:4010C0001A70074B4FF400421A60FB7918460C37BD465DF8047B704780E100E0ADC1FF1F00E100E080B483B000AF0E4B4FF400421A600D4B1B78DBB223F00F03FB710A4B18
:401100001B78DBB203F02F03DAB2074B1A70074B4FF400421A60FB7918460C37BD465DF8047B704780E100E0ADC1FF1F00E100E080B483B000AF0346FB71054AFB7903F0FF
:401140007F03DBB213700C37BD465DF8047B7047CA49004080B483B000AF78600B46FB707B68002B10D00B4B4FF400421A600A4A7B681360094AFB781370094B00221A70D9
:40118000084B4FF400421A600C37BD465DF8047B704700BF80E100E0B0C1FF1FBCC1FF1FACC1FF1F00E100E080B483B000AF78600B46FB707B68002B10D00B4B4FF4004223
:4011C0001A600A4A7B681360094AFB781370094B00221A70084B4FF400421A600C37BD465DF8047B704700BF80E100E0B8C1FF1FAEC1FF1FB4C1FF1F00E100E080B400AF04
:40120000034B00221A70BD465DF8047B704700BFACC1FF1F80B400AF034B00221A70BD465DF8047B704700BFB4C1FF1F80B485B000AF0346FB710B4B1B78DBB223F01003B6
:40124000FB730849FB791B01DBB203F01003DAB2FB7B1343DBB20B701437BD465DF8047B704700BF5051004080B483B000AF0346FB71044AFB7913700C37BD465DF8047B89
:40128000704700BF7665004080B483B000AF0346FB71044AFB7913700C37BD465DF8047B704700BF7564004080B483B000AF0346FB71044AFB7913700C37BD465DF8047BBA
:4012C000704700BF7164004080B500AF054B1B78002B04D100F008F8024B01221A7000F023F880BD99C1FF1F80B400AF094B72221A70094B20221A70084B06221A70084B25
:4013000047221A70074B00221A70BD465DF8047B704700BF826400408364004022640040326400408764004080B582B000AF00F073F80346FB71104A0F4B1B78DBB243F02E
:401340002003DBB213700D4A0C4B1B78DBB243F01003DBB213700A4A094B1B78DBB243F01003DBB2137000F033F8FB79184600F057F80837BD4680BD9264004093640040E0
:401380009764004080B400AF034B1B78DBB21846BD465DF8047B70476764004080B483B000AF0346FB7100BF074B1B78DBB203F00403002BF8D1054AFB7913700C37BD4634
:4013C0005DF8047B704700BF676400404765004080B400AF094A094B1B78DBB243F00103DBB21370064A064B1B78DBB243F00103DBB21370BD465DF8047B7047A243004000
:40140000B2430040000000000230800803D000BF01380046FCD17047EFF3108072B6704780F31088704700BF014B1868704700BF6CC1FF1F0E4B70B51E460E4C0025E41A6A
:40144000A410A54204D056F8253098470135F8E700F008F9084B094C1E46E41AA4100025A54204D056F8253098470135F8E770BD70160000701600007016000078160000F3
:4014800010B5431E0A44914204D011F8014B03F8014FF8E710BD000000000000536C61766520697320616C69766500004E554C4C5F434D44000000004C45445F4F46462000
:4014C000000000004C45445F4F4E00004348204D41534B3A20307800414C4C5F50574D5F41435449564500005553455F50574D5F4D41534B00000000414C4C5F50574D5FA5
:401500004C4F5700414C4C5F50574D5F484947480000000052544E5F455252004E4F4E5F564552424F53455F4D4F444500000000564552424F53455F4D4F44450000000054
:40154000880200008002000078020000700200006802000068020000680200006802000090C1FF1F90C1FF1F90C1FF1F90C1FF1F90C1FF1F90C1FF1F90C1FF1F90C1FF1F53
:4015800090C1FF1F90C1FF1F000000480800004810000048180000482000004828000048380500483000004838000048B800004838010048B801004838020048B8020048A2
:4015C00038030048B803004838040048B8040048580500486805004878050048F805004878060048F806004878070048F807004878080048F808004878090048F80900483D
:40160000780A0048F80A0048780B0048F80B0048780C0048F80C0048780D0048F80D0048780E0048F80E0048780F0048F80F004878100048F810004878110048F8110048D2
:4016400078120048F812004878130048F813004878140048F814004878150048F815004843000000F8B500BFF8BC08BC9E467047B5020000A1070000F8B500BFF8BC08BCC9
:401680009E467047910200009816000008C1FF1F68000000500000000000000000000000000000000000000000000000000000000000000000000000000000006016000039
:4016C0000000000000000000000000000000000000000000000000000000000000000000000000000000000000000000000000000000000000000000000000000CC1FF1FFF
:4017000000000000000000000000000000000000000000000000000000000000000000000000000000000000000000000000000000000000000000000000000000000000A9
:401740000000000000000000000000000000000000000000000000000000000000000000000000000000000000000000000000000000000000000000000000000000000069
:401780000000000000000000000000000000000000000000000000000000000000000000000000000000000000000000000000000000000000000000000000000000000029
:4017C00000000000000000000000000000000000000000000000000000000000000000000000000000000000000000000000000000000000000000000000000000000000E9
:020000040001F9
:0200000480007A
:40000000C99C000000000000A0340000000000001915000000000000808000004000000025360000300000000C04000000000000000000C000000000000100020900C400EE
:400040001C04000000000300000203010303000007003800120044001C000000000303000300000000000000030380001C00600400000008000040406403050001C0E000FC
:400080000AFFFFFF62A0F0410C0000000000000004040400000000010000000000004002001030100010101200000000000000000000000000000000000010000800000011
:4000C00000001510080000050100160001000218000000000009001600000000000000000809000200000404080007001307001A00000000000014500000000000000000BB
:4001000000000000000000000000000000000000040400040000000100000000000000000000000000000000000000000000000000000000000000000000000000000000B2
:40014000000000000000000001000E00010002000000040000000D00000000000000000000000800000000000B0007000000000000000000000005000200000000004000FB
:4001800000FF07FF4020F0050800000000000213040004040000000140A84020000000000000000000000000000000000000000000000000000000000F0410000CBF000085
:4001C00004BC0002010000230000134013A70C180300000402100000080000400C181300000800001F9C0021003800400F1F1C800000A02000000044000000000000000026
:400200000000000000000000000000001800000004040004000000010000000000000000000000000000000000000000000000000000000000000000000000000001040094
:40024000000000010002000C010006000001080000000008000008000000000A0000000001020204000005010700000E080000010080000000001104000000000000000083
:400280000000000000000000000000000000000004040000000000010000000000000000000000000000000000000000000000000000000000000000004400B80003100026
:4002C00000000480000005C009001610090002340000000000000001000200000003180000440008000000201AC8002C0703001C0020000000001155000000000000000003
:400300000000000000000000000000000000000004040004000000010000000000000000000000000000000000000000000000000000000000000000000003040110060092
:4003400000000C800C00030D10006000000000C001000E080041408E0000501000100800104120020020000070070030000B0FC20008800000000151000000000000000017
:40038000000000000000000000000000000000000404000000000001000000000000000000000000000000000000000000000000000000000000000000DC00220100000332
:4003C000000901D0000000000000010000140000010C00710000010002000020001000AC00100040000000000100001F02E00000000000200000110000000000000000002E
:400400000000000000000000000000000100000004040004000000010000000000000000000000000000000000000000000000000000000000000000000000250000100079
:40044000000000000009083601003E1001090202000000000000040000000004000000180000200000003D2007230B072300131A0000000000005545000000000000000015
:4004800000000000000000000000000000000000040400040000000100000000000000000000000000000000000000000000000000000000000000000A000400030004001A
:4004C00003000C0000010006100060000001080203000400000005040000400500005000100020000000000000000F0070070000000008000000101034020000000C0E0B8D
:4005000015FFFFFF0000F0440C000000000000000404040000000001000000000000C000000040020000000000000000000000000000000000000000000200000000000058
:400540000000000000000000000072380000000F000000000000000001000000000000000000010000000000010000000000000001000100000000000000000000000000BD
:40058000000000000000000000000000000000000000000000000000000000000000000000000000000000000000000000000000000000000000000000000000000000003B
:4005C000000000000000000000000000000000000000000000000000000000000000000000000000000000000000000000000000400000008000000000000000000000003B
:4006000000000000000000000000000000000000C00000000000000000000000000000000000002000000000000000000000000000000000000000000000000000000000DA
:400640000000000000000000000000000000000000000000010004000000000000000000000000000000000000000000000000000000000000000000000000000000000075
:40068000000000000000000040000020800000000000000000000000000000000000000000000000000000000000000000000000000000000000000000000000000000005A
:4006C00000000000000000000000000000000000000000000000000000000000000000000000000000000000000000000000000000010000200000000000000000000000D9
:400700000000000000000000000100000000000020000000000000000000000000000000000000000000000000000000000000000000000000000000000000000E0000008A
:400740000000000000000000000000000000000000000000000003000000000000000000000000000000000000000000000000000000000000000000000000000000000076
:400780000000000000000000000100000000000020000000000000000000000000000000000000000000000000000000000000000000000000000000000000000000000018
:4007C00000000000000000000000000000000000000000000000000000000000000000000000000000000000000000000000000000000000000000000000000000000000F9
:400800000000000000000000000100000000000020000000000000000000000000000000000000000000000000000000000000000000000000000000000000000000000097
:400840000000000000000000000000000000000000000000000000000000000000000000000000000000000000000000000000000000000000000000000000000000000078
:4008800000000000000000000001000000000000200000000000000000000000000000000000000000000000002000000020000000000000000000000000000000000000D7
:4008C00000000000000000000000000000000000000000000000000000000000000000000000000000000300000000000000000000000000000000000000000000000000F5
:400900000020000000000000000100002000000000000000000000000000000000000000000000000000000000000000000000000000000000000000000000000000000076
:40094000000000000000000000000000000000000000000000000000000000000000000800000000000000000000000000000000000000000000000000000000000000006F
:400980000000000400000000000000000000000000000000000000000000000000000000000000000000000000000000000000000000000000000000000002000C00000025
:4009C00000000000000000000000000000000000010000000000000001000000000000000000000000000000000000000000000000000000000000000000000000000000F5
:400A000000000000000000000000000000000000000000000000000000000000000000000000000000000000000000000000000000000000000000000000000000000000B6
:400A40000000000000000000000000000000000000000000000000000000000000000000000001000000000000000000000000000000000000000000000000000040000035
:400A800000000000000000000000000000000000004000000000000000000000000000000000000000000000000000000000080000000000000000000000000000000000EE
:400AC000000000000000000000000000000000000000000000000000000000000000000000000100000040000000000000000000000000000000000015000000000000118F
:400B00008004004804000240A40000080010030010080020805020000020000000008880000001002080010084000000040000010000004000000240940000000000000053
:400B4000100000080000000000084000000000000000000000000000000000000000000000000000001009110000000080000000000000000000000000300080000000209B
:400B80004000100000000000050000400010010084800108000840000004010010088400000000000000000000000000000100000000000000000000AE00BF00CE0000005D
:400BC0000000D100CA0098000700000000000000000000000000000000008000000020000000100000000000000000000000000000000000000000002028000020488000DB
:400C00008000008600208140000040024400200000008400014100401424000428050001800820000408804100280000000040182108000006900000000000000000000003
:400C400000000000000000000000000000000000002084020000000000000000000000000000000000000000000000000000000000000000000000000400000000000001C9
:400C800000000000000180000000004010000084C4802118000800000140010000000400400000001000000000200000000002000000000000000000F600DB007800000059
:400CC0000000F7007600F7000000000000000F0000000000000000000000400000004000000000000000900000000000000000000000000000000000000000200004050048
:400D00000081006004000040048001000000000884000000002080002080000000100A014440000004880040000004208000810800280040009200040000000000000000A7
:400D40000000000000000000000000000000000000000000000000000000000000000000000000000050022000000000018404500000000000000000000000000000080020
:400D80000000400100000000002808601450000044402008000004400040800000100400000000000000401000000004000000000000000000000000E4003D0023000000A2
:400DC0000000FD00D600FE00000000000000000000000000000000000000200000002000000080000000000000000000000000000000000000000000000000000000000062
:400E000000000000000000000000000000000000000000000000000000000000000000000000000000000000000000000000000000000000000000000000000000000000B2
:400E40000000000000000000000000000000000000000000000000000000000000000000000000000000C00000000000000000000000000000000000200800820000000008
:400E80000008468044009940820020000000040000E00880000000050010221100000000005A00000000000080081600000000000029008000000000000000000010000040
:400EC0000000000000008000000000000000200000010000000000010400400000000000000000000000002900000000901800000000000000000000000000000204000035
:400F0000000000000000000100097720105000000003000800A0004100404002000822280010000000000108004100000400000200000000000000000F00FF004D00000035
:400F400000000F000F000F0020000000000081000C000000000000000000400000000000000000002000000000000000000000000000000000000000000000000000000037
:400F80000000000000000000000000000000000000000000000000000000000000000000000000000000000000000000000000000000000000000000000000000000000031
:400FC0000000000000000000000000000000000000000000000000008000000000000000000000000000000000000000000000000000000000000000048000080004004998
:4010000000084600000090000000A01000400800010124002010400002040110009000000000082000401000000401080000400810010000009000000104400000000000EA
:40104000002202000000000000000010000000000000000000000000000000000000000000000000000090000000000000000000000000000000000000900000000080207C
:401080001100000000000000000000000000000000000000000000000000000000000000000000000000000000000000000000000000000000000000F7003F00CE0000001B
:4010C00000003200530035000B000C00000000000000000000000000000000000000800000000000000000000000000000000000000000000000000000000000000000009F
:4011000000000000000000000000000000000000000000000000000000000000000000000000000000000000000000000000000000000000000000000000000000000000AF
:401140000000000000000000100001000000000000000000020000000800000200000200000000000000000008000000000000400000000000000000000000000800000000
:4011800000000000000000002000000000000000020003400000000008000001000000000000100000000000000000001000000000000000000000000000000000000000A1
:4011C000000000000000000000000000A000C000C000000080002000000000000000100000008000000000000000000000000000000000000000000000000000000000009F
:4012000000000000000000000000000000000000000000000000000000000000000000000000000000000000000000000000000000000000000000000000000000000000AE
:401240000000000000000000000000000000100000000000000000200000000000000000000000000000000000000000000000000000000000000000000003200000000417
:4012800000001001000000000000000000001008020000400000000008000000000000000000000000000000000000000200000000000000000000000000000000000000B9
:4012C0000000000000000000000000004000200000000000000000000000A000000030000000000000000000000000000000000000000000000000000000004000000080FE
:401300000000000000000240000000000000100800000000000002800800000000000040000800000020000000040000080000000000000000000000000000000000000055
:40134000000000000000000000000000000000000000000000000000000040000000800000009000000000000000000000000000000000000000000000000000000000001D
:40138000000000000000000000000000000000000000000000000000000000000000000000000000000000000000000000000000000000000000100000000000000000001D
:4013C00000000000000000000004000000080000000000000000000000000000000000000000000000000000000000000000000000000000000000000000000000000040A1
:401400000080020000000000000000000000008800000000000002800000000000A002400000000000000000000080000000000000000000000000000000000000000000BE
:4014400000000000000020000000000060000000000000000000000000001000000000000000000000000000000000000000000000000000000000000000000000000000DC
:40148000000000000000000000000000000000000000000000000000000000000000000000000000000000000000000000000000000000000000000000000000000000002C
:4014C000000000000000000000008000000002400000008000080000008000080000008000000000000000000000000000000000000000000000000000000000000000009A
:401500000000000000080000000000000000000800000000000000000000000400200200000000808000000000000400000000000000000000000000000000000000000071
:40154000000000000000000000000000E000E000C000000000000000000000000000000010008000000000000000000000000000000000000000000000000000000000005B
:4015800000000400800000000000000000000000000000000000000000000000000000000000000000000000000000000000000000000000000000000000000000000000A7
:4015C00000000000000000000000020400200000040000000000008000000000002000000000000000000000000000000000000000000000000000000020000400000000FD
:4016000004000000000000000000000000000000000000000000000000000000000000000000000000000000000000000000000000000000000000000000C00000000000E6
:40164000000000000000000000000000E00060008000000000000000000000000000A00000000000000000000000000000000000000000000000000000FFFF00FF0000000D
:401680003000000F3F003F0000000000000C0C000C000000000B0B000000000000FCFC00FC000000C03F3F003F000000001010000000000080004080800080000000000062
:4016C00000000000000000000000000000000000000000000000000000000000000000000000000000000000000000000000000000000000000000000000000000000000EA
:4017000000000000000000000000000000000000000000000000000000000000000000000000000000000000000000000000000000000000000000000000000000000000A9
:401740000000000000000000000000000000000000000000000000000000000000000000000000000000000000000000000000000000000000000000000000000000000069
:401780000000000000000000000000000000000000000000000000000000000000000000000000000000000000000000000000000000000000000000000000000000000029
:0200000490006A
:0400000000004004B8
:0200000490105A
:04000000BC90ACAF55
:0200000490303A
:0200000069B8DD
:0200000490402A
:4000000000000000000000000000000000000000000000000000000000000000000000000000000000000000000000000000000000000000000000000000000000000000C0
:400040000000000000000000000000000000000000000000000000000000000000000000000000000000000000000000000000000000000000000000000000000000000080
:0200000490501A
:0C00000000012E13306900012E1B9A2114
:00000001FF