:400000000040002011000000B5070000B507000008B5044B1A6803F53F5302331A6000F0D1FB00BFFA46004010B5054C237833B9044B13B10448AFF300800123237010BD73
:4000400080C1FF1F00000000680D0000084B10B51BB108480849AFF300800848036803B910BD074B002BFBD0BDE81040184700BF00000000680D000084C1FF1F08C1FF1FA7
:400080000000000010B50446012000F07BFD204600F062FD002000F075FD10BD08B562B600F08CFAFA20FFF7EDFF1222024B1A7000F080F9FCE700BFA0C1FF1F08B52C21BE
:4000C00000F0E4FAB0F1FF3F01D1012008BD022008BD00BF10B582B00446B1B96846214600F039FE002301E00133DBB2194602AA1A4412F8082C2C2A01D0002AF4D102ABDF
:400100001944002301F8083C0BE0012909D12C2100F0BCFA013000F0FF016846214400F01AFE684600F0DCFA02B010BD38B505460C46FFF7C3FFA04207D0054800F04EFA71
:40014000284600F055FAFF2000E0002040B238BD6C0D0000F0B585B00646204800F048FA3546002731E0304601A900F0C9FA01A800F034FA1A4800F031FA00240DE006EBC7
:40018000840000F00FFB01A900F0BAFA01A800F025FA134800F022FA0134032CEFD9103600240BE0281900F001FBA0F12003DBB25D2B00D92E2000F005FA01340F2CF1D98D
:4001C0001035074800F014FA01370F2FCBD900F019FA0D28C5D005B0F0BD00BF900D00008C0D000030B585B00446104800F000FA204600F0DBFA0546204601A900F080FA99
:4002000001A800F0EBF90A4800F0E8F9284601A900F0AEFA01A800F0EBF900F0F3F90D2801D10134E4E705B030BD00BFD80D00008C0D000010B584B004460F4800F0D8F9D4
:40024000204601A900F05CFA01A800F0C7F90B4800F0C4F9204600F0A7FA01A900F06CFA01A800F0C5F900F0CDF90D2801D10234E6E704B010BD00BFD80D00008C0D000003
:4002800010B584B004460F4800F0B2F9204601A900F036FA01A800F0A1F90B4800F09EF9204600F07FFA01A900F02AFA01A800F09FF900F0A7F90D2801D10434E6E704B0BE
:4002C00010BD00BFD80D00008C0D000030B585B005460C460C4800F081F9284601A900F00FFA01A800F07AF9084800F077F9204601A900F005FA01A800F07AF928462146D2
:4003000000F056FA05B030BDBC0D0000DC0D000030B585B005460C460C4800F05FF9284601A900F0EDF901A800F058F9084800F055F9204601A900F0E3F901A800F058F9AA
:400340002846214600F034FA05B030BDBC0D0000DC0D000030B585B005460C460C4800F03DF9284601A900F0CBF901A800F036F9084800F033F9204601A900F0C1F901A8A2
:4003800000F036F92846214600F012FA05B030BDBC0D0000DC0D000008B5024800F028F908BD00BFA0C1FF1F3422014B1A707047A0C1FF1F10B594B0754800F019F9684606
:4003C00000F02AF9734800F013F99DF800303F3B382B00F2D780DFE803F01DD5C7D5D52DD5D5B91DD5D5D5D5D5D5D5D5D53DD5D5D5D570D5D5D5D5D5D5D5D5D5C7D5D52DE5
:40040000D5D5B91DD5D5D5D5D5D5D5D5D53DD5D5D5D57000604800F0EBF8604800F0E8F85F4800F0E5F85F4800F0E2F85E4800F0DFF8AAE068460121FFF778FEB0F1FF3FD4
:4004400000F0A3800DF101000021FFF743FEFFF781FE9AE00DF102000121FFF767FEB0F1FF3F00F092809DF80130422B01D0622B07D10DF102000021FFF72CFEFFF7B2FE75
:4004800083E0532B01D0732B07D10DF102000021FFF720FEFFF7CEFE77E04C2B01D06C2B07D10DF102000021FFF714FEFFF7E8FE6BE03E4800F09CF867E068460221FFF7A7
:4004C00035FEB0F1FF3F60D0394800F091F89DF80130422B01D0622B0ED10DF102000021FFF7F8FD044668460121FFF7F3FDC1B22046FFF72FFF48E0532B01D0732B0ED153
:400500000DF102000021FFF7E5FD044668460121FFF7E0FD81B22046FFF7FAFE35E04C2B01D06C2B0ED10DF102000021FFF7D2FD044668460121FFF7CDFD01462046FFF718
:40054000C5FE22E01B4800F053F81EE068460121FFF7ECFDB0F1FF3F17D068460021FFF7B9FDFFF719FF10E068460121FFF7DEFDB0F1FF3F09D068460021FFF7ABFDFFF770
:4005800013FF02E00C4800F033F814B010BD00BFE40D0000D80D0000180E0000500E0000880E0000AC0E0000D80E0000000F0000300F0000440F00007C0F000008B500F01F
:4005C0002FFB08BD10B5044600F056FB10F0040FFAD1204600F056FB10BD00BF10B5044602E00134FFF7EEFF20780028F9D110BD08B5FFF7F3FF0D20FFF7E4FF0A20FFF780
:40060000E1FF08BD08B500F019FB10F0200FFAD000F01CFB08BD00BFF8B507460026354600F00CFB10F0200F2CD000F00FFB04460A2801D00D2807D12046FFF7C3FF00237E
:400640003B700135E8B2F8BD082801D07F280DD1C5B10820FFF7B6FF2020FFF7B3FF0820FFF7B0FF013F013DEDB20BE04E2D03D900233B70012605E0FFF7A4FF07F8014BA9
:400680000135EDB2002ECBD02846F8BD002305E08A4201D1D8B206E00133DBB25AB2825C002AF5D1FF2040B2704700BFA0F13003DBB2092B0FD9A0F16103DBB2052B02D848
:4006C0005738C0B27047A0F14103DBB2052B04D83738C0B27047184670470020704700BF70B5064600231C4605E01D01FFF7DEFF2B180134E4B2305D0028F6D1184670BDB0
:4007000030B400221C244FF070450EE000EA0503E340092B02D830338B5401E037338B542D09043CE4B20132D2B2072AEED900230B7230BC704700BF30B400220C244FF4CC
:4007400070450EE000EA0503E340092B02D830338B5401E037338B542D09043CE4B20132D2B2032AEED900230B7130BC704700BF30B400230424F0250EE000EA0502E2404A
:40078000092A02D83032CA5401E03732CA542D09043CE4B20133DBB2012BEED900238B7030BC70470068704700887047007870470160704708B500F08FFA03680C2B00D175
:4007C000FEE7FEE708B5104E104D16E029686B68AC68002204E051F8040B43F8040B0432A242F8D1E868002203E0002143F8041B04328242F9D11035013E002EE6D100F0D1
:4008000071FAFFF74BFCFEE7010000000C10000008B5124A124B1A60124A136843F40073136000230AE0032B03D80F4A52F8231000E00E490E4A42F8231001332F2BF2D9E9
:400840000C4B1A780C4B1A70094A0C4B1A6000F0D9F800220A4B1A6008BD00BF0004FA050CED00E014ED00E000000000B507000000C0FF1FBC76004004C1FF1F08ED00E0D3
:4008800000C1FF1FFEE700BFF0B40022174611E050F82760F3B226F0FF0608E001EB420511F812406D78A5550132013BDBB2002BF4D10137122FEBD9F0BC7047064B1B784D
:4008C000DBB203F00701054A11701B09013213704422034B1A707047CF0100496E5800407658004008B50A46002100F02CFA08BD38B54FF4D072384B1A80182202331A7013
:40090000F92202331A801B2202331A70022203F27A231A7008224FF040231A7043F2133203F212231A80023B05221A701B7843F2C82404E04FF4F07000F0BEF9013C24B11B
:40094000264B1B7813F0800FF4D114B90120FFF799FF40F20C52224B1A8009224FF040231A7041F2512203F508731A80002419250CE01C4B1B7803F0010343EA440404F057
:4009800003044FF4F07000F097F9013D0DB1032CEFD115B90320FFF775FF134B4FF480721A800321114A1170114A1278D2B211490A7007221A700022A1F29B610A70482017
:4009C000023108701A700222033B1A700A4A137843F00303137038BD80400040104200402242004025420040044000400042004008010049A1460040A243004008B500F018
:400A000097F908BD70B572B63C4A137843F00403137000240CE03A4963001A1952000A4423445B00C8589188FFF75CFF0134E4B2072CF0D900240BE03149A3001A195200B9
:400A40000A44106B516B8022FFF7D8FF0134E4B2002CF1D04FF090402A49FFF715FF2A4A137843F0020313701032137843F002031370264C237843F040032370A2F5863297
:400A8000513A137843F010031370214821490822FFF7B4FF204821490822FFF7AFFF204820490822FFF7AAFF1F4820490822FFF7A5FF1F481F490A22FFF7A0FF1E481F4985
:400AC0000822FFF79BFF1E481E490822FFF796FF1D4A137843F0080313701C4E01253570FFF706FF81233370194B1D70FFF7E6FE184821460E22FFF781FF70BDE8460040BD
:400B0000A80F00004C00004803500140A04300400251004010070048C251004018070048F25100402007004812510040280700483051004030070048425100403C0700485D
:400B40005251004044070048224300400048004004000840B043004010B5044605E0084B186800F0A9F8A4F50044B4F5004FF6D8034B586800FB04F000F09EF810BD00BF49
:400B80000CC1FF1F044A137803F0EF03000100F010001843107070475051004010B500F093F804460A4A137843F020031370013A137843F0100313700432137843F0100340
:400BC000137000F06BF8204600F082F810BD00BF94640040014B1878704700BF77650040014B1870704700BF7765004008B572220A4B1A702022013B1A700622A1331A70F9
:400C0000472210331A700222AD3B1A70FFF7E2FF00F0E700FFF7E4FF08BD00BF8464004008B5054B1B7823B9FFF7E0FF0122024B1A70FFF7B3FF08BD9CC1FF1F024B1878A5
:400C400000F07F00704700BF63640040084B1B78DBB213F0200F06D0064A1078C0B213F01E0F02D17047002070470020704700BF6364004044640040014B1878704700BF5B
:400C800067640040034B1B7813F0040FFAD1024B187070476764004047650040054A137843F0010313701032137843F001031370704700BFA24300400230800803D000BFE2
:400CC00001380046FCD17047EFF3108072B6704780F31088704700BF014B1868704700BF7CC1FF1F0E4B70B51E460E4C0025E41AA410A54204D056F8253098470135F8E71D
:400D000000F072F9084B094C1E46E41AA4100025A54204D056F8253098470135F8E770BDF40F0000F40F0000F40F0000FC0F000010B5431E0A44914204D011F8014B03F877
:400D4000014FF8E710BD03460244934202D003F8011BFAE77047034611F8012B03F8012B002AF9D17047000000000000636865636B5061726D436F756E743A2050617261CD
:400D80006D65746572206572726F723A20000000456E74657220746F20636F6E74696E75652C20616E79206F74686572206B657920746F2073746F700000000077726974FE
:400DC000654D656D3A2077726974696E67202D20616464726573733D000000002C20646174613D0041524D2050734F43204D6F6E69746F722076302E302E3220283F206670
:400E00006F722061206C697374206F6620636F6D6D616E6473290000525341444452202D20526561642F4D6F6469667920627974652F73686F72742F6C6F6E672064617439
:400E4000612061742061646472657373000000005753414444522C44415441202D20577269746520627974652F73686F72742F6C6F6E67206164647265737320776974689F
:400E800020646174610000004461646472657373202D2044756D70207374617274696E672061742061646472657373004761646472657373202D20476F2073746172742006
:400EC000657865637574696E672061742061646472657373000000004161646472657373202D20646973417373656D626C6520636F64652061742061646472657373000075
:400F0000525341444452202D205265616420427974652F53686F72742F4C6F6E6720646174612061742041444452657373000000676F7420777269746520636F6D6D616EF1
:400F4000640000005753414444522C44415441202D20577269746520427974652F53686F72742F4C6F6E67204144445265737320776974682044415441000000556E7265A2
:400F8000636F676E697A656420636F6D6D616E642C203F20746F206C69737420636F6D6D616E64730000000020510040100060510040100000000140000480040140800BAC
:400FC00000140140000800400140000A004C0140000200500140200000040140900600488000000043000000F8B500BFF8BC08BC9E4670474D00000011080000F8B500BF92
:40100000F8BC08BC9E467047290000002010000008C1FF1F780000002001000000000000000000000000803E007D0000200000000048E80100000000000000000000000038
:401040000000000000000000000000000000000000000000E40F0000000000000000000000000000000000000000000000000000000000000000000000000000000000007D
:4010800000000000000000000000000000000000000000001CC1FF1F0000000000000000000000000000000000000000000000000000000000000000000000000000000035
:4010C00000000000000000000000000000000000000000000000000000000000000000000000000000000000000000000000000000000000000000000000000000000000F0
:4011000000000000000000000000000000000000000000000000000000000000000000000000000000000000000000000000000000000000000000000000000000000000AF
:40114000000000000000000000000000000000000000000000000000000000000000000000000000000000000000000000000000000000000000000000000000000000006F
:40118000000000000000000000000000000000000000000000000000000000000000000000000000000000000000000000000000000000000000000000000000000000002F
:020000040001F9
:0200000480007A
:400000000A5200400364004050020140300301400604014048050140410601404A0701405D14014044150140551601404A1701400B400140134101401C4201401543014090
:400040000E4801401A4901400550014000630136185119C820C32165600A610678047908833C8472870F000802070D060F0910041103120B130414061608180A19051A051A
:400080001B021C061E082B072D07300431023201330834083501360237043A083B083E513F51580459045C115F01811C83E3840285018601870288048BFC8C028DFC9002B6
:4000C0009124920193D8956C9608979099029A029B019DD89F24A002A1E0A31FA5D8A608A724A9FCAD90AF48B002B204B408B503B601B7FCBA80BBA0BE15D41CD804D90471
:40010000DB04DC01DF0100200180031004020A200B480E2A0F4112101301184619881D801E601F142008212022402480254026042714284029142B012D802F04312832422A
:400140003601371039A43A023F405A0A600462808C408D80C017C2FEC40CCA3FCCAFCE1FD603D80CE2508701A301B701BF40D904DF0100540111080409810A04100912202A
:400180001301181419161B80204221C022162680284029942F803108326238A83A023F0441184380480149904B045210590268026B14705C72047301830287808B048D047F
:4001C0009002928095A4962A974099089C409D149E12A004A140A214A410A508A683A701AA40AB04B310B440C00FC20FC40FCA8FCC0FCE4FD00ED20CD601E280E640EA2007
:40020000EE100003020C1001120E1407160818021A0D1C0730023204340136083A803E1558045B045C015F018103830C84FF870F888089088A608B028C2F8D0F8ED09003FD
:40024000911092EC94759510968A99109CF59D059E0AA00CA10CA2E3A303A50AA6FFA705A8CAA905AA35AB0AAC04AE01B00FB2E0B30FB510B610BA0ABB08D401D804D904C3
:40028000DB04DF010004020203080402068009890C280E2A0F40115112201A021B091E021F16211022202310284029202B203002339438403A023B143D023E0259185A8101
:4002C000640167016D286E406F407614778279407B01811083028A108E409006911095259602976899089B149C459E069FC0A006A180A216A410A50DA621A703AA04AF108A
:40030000B140B740C017C2FDC40FCA07CC0FCE0FD60FE660EA10EE2002060401050C0753080109080A020B100CB60D2B0E480F54118012481314150C1696177018601A1E2E
:400340001B231C041E031F02200422032301260128622A982F03301C3203333F34CC35C036283710388039203A2A3B083E403F404001460449FF4A074BFF4C404D204EF0E4
:400380004F055008580459045A045F01604061A862406320800682098D038F0890099206930B9504960F98099A069C0A9E05A508A703AB0BAD02AF09B004B102B208B3082D
:4003C000B401B501B602B704BE55BF55D804D904DF010048024003080680084009020A240C280E020F4010801104120818451A041B2C1E201F922258230424082504268222
:4004000028402A422C282E803080310232183504360138643F40400151025240800481048380861087108A028E808F02902091049340944496A0970499049A829E40A0AC00
:40044000A201A502A608A724C01FC2FFC40ECA79CCCFCE1ED008E240E660010403080D110F021113150C1810190C1A2A1C081D081E151F04243825112702283829132C20E6
:400480002D122E112F013004310C320333023438351037013E043F54580459045F0181A0820385608601879F890A8B058DF58E029401959F976099409B959D0C9E049F13A9
:4004C000A103A31CA505A70AA910AD80AF1FB207B607B7FFBB03BF40C064C102C50EC6C0C7B0C829C9FFCAFFCBFFCEF0CF44D00CD21CD804D904DA04DB04DC10DF01E6C01B
:40050000EA40EB02004403800420051009800A200E080F01175419041B801D081E081F022180234025042690274029042A422B042C282E8030C032183601375438463B1063
:400540003F4140044102481049204A0850116880690572028404868087028A108D048F01931094409505968097459A809B149C449D309E02A02CA201A410A508A7A0B01074
:40058000B201C00DC2C5C4E0CA7FCCFECE9FD005D204E280E410E6405220550257205B105C08600162016620D4E0D6E0D8C05004544259015A105F02610467088C048D404E
:4005C00094019C089E219F10A502A620A720D4E0D6E0D8C050085420820185028B208F1091409401961097089B209C089D059E219F12A020A308A440A502A620A720A802B5
:40060000AB20B308B420D460E260EAA08001810488408E209140940197089B209C089D059E20A308A440AA10AE20B008B702E280E680EA80EE4057085B20870488088C01B6
:400640008D01914097089B209C089D01A308D4C0E6100401508157085D0460086302660170087D40808883088504870188088C018E0191409401C020D4E0D6C0D8C0DC8077
:40068000DE20E220E6F0000308030A0310031A03062000407F0600006702100027044800060E00710008010002000069790006600440002000065879067F0000017900062A
:4006C00020071F600010460E002028820000010052060100030CE00009FFFFFF62A0F0410C00000000000213040404040000000100000000000040020010301000101012AE
:400700000000000000000000000000000000000000FFFF00FF000000000F0F000F000000000C0C000C000000000B0B00000000000A0000FFFDFDFD000000000000FFFF0057
:40074000FF0000000010100000000000000000000000000000000000000000000000000000000000000000000000000000000000000000000000000000000000000000005A
:400780000000000000000000000000000000000000000000000000000000000000000000000000000000000000000000000000000000000000000000000000000000000039
:4007C00000000000000000000000000000000000000000000000000000000000000000000000000000000000000000000000000000000000000000000000000000000000F9
:4008000000000000000000000000000000000000000000000000000000000000000000000000000000000000000000000000000000000000000000000000000000000000B8
:400840000000000000000000000000000000000000000000000000000000000000000000000000000000000000000000000000000000000000000000000000000000000078
:0200000490006A
:0400000000004005B7
:0200000490105A
:04000000BC90ACAF55
:0200000490303A
:020000003BB80B
:0200000490402A
:4000000000000000000000000000000000000000000000000000000000000000000000000000000000000000000000000000000000000000000000000000000000000000C0
:400040000000000000000000000000000000000000000000000000000000000000000000000000000000000000000000000000000000000000000000000000000000000080
:0200000490501A
:0C00000000012E13306900012E1B6C2142
:00000001FF