:400000000040002011000000A9030000A903000008B5044B1A6803F53F5302331A6000F0CBF900BFFA46004010B5054C237833B9044B13B10448AFF300800123237010BD9B
:4000400080C1FF1F00000000680F0000084B10B51BB108480849AFF300800848036803B910BD074B002BFBD0BDE81040184700BF00000000680F000084C1FF1F08C1FF1FA3
:400080000000000008B562B600F05AF800F03CF84FF4FA7000F050FB00F01EF9FCE700BF38B505460C4600F0FDFE08490D704C7020200222002300F0BFFD00F0D7FE10F07D
:4000C000020FFAD000F0EEFE38BD00BFA0C1FF1F10B5044600F0E6FE2020002100F012FE204600F06BFE00F04DFE2020012100F009FE002000F08EFE044600F043FE00F078
:40010000D1FE204610BD00BF08B500F01BFC05200021FFF7C5FF0020F021FFF7C1FF02200021FFF7BDFF04200021FFF7B9FF0620F021FFF7B5FF0820FFF7CAFF08BD00BF1F
:4001400008B500F069FB08BD10B5044600F090FB10F0040FFAD1204600F090FB10BD00BF10B5044602E00134FFF7EEFF20780028F9D110BD08B5FFF7F3FF0D20FFF7E4FFC9
:400180000A20FFF7E1FF08BD08B500F053FB10F0200FFAD000F056FB08BD00BF38B5154601EB400101F12004E4B200F07BFE2046002100F0A7FD284600F000FE00F0E2FDF1
:4001C0002046012100F09EFD002000F023FE044600F0D8FD00F066FE204638BD70B516461D4601EB400101F12004E4B200F05AFE07490E704D7020460222002300F01CFDB7
:4002000000F034FE10F0020FFAD000F04BFE70BDA0C1FF1F38B52D48FFF7ACFF00F092FB00254DE0284621460A220023FFF7D6FF284621460B220023FFF7D0FF284621465C
:4002400000221346FFF7CAFF2846214601220023FFF7C4FF2846214604220023FFF7BEFF2846214605220023FFF7B8FF2846214608220023FFF7B2FF2846214609220023E7
:40028000FFF7ACFF284621460C22F023FFF7A6FF284621460D22F023FFF7A0FF284621461022FFF77BFF284621461122FFF776FF0134E4B200E00024012CB3D90135EDB2F9
:4002C000022DF8D90248FFF755FF38BD6C0F0000940F0000704700BF10B52848FFF74AFF3E20FFF731FF2020FFF72EFFFFF74CFF0446FFF729FF522C26D00AD80D2C3CD042
:4003000002D80A2C39D035E03F2C0DD0482C0BD030E0682C08D002D8582C22D02AE0722C12D0782C1DD025E01548FFF723FF1548FFF720FF1448FFF71DFF1448FFF71AFF4C
:400340001348FFF717FF10BD1248FFF713FFFFF7C1FF4FF4FA6000F0EFF90F48FFF70AFF10BD0E48FFF706FFFFF754FF0C48FFF701FF10BD0B48FFF7FDFE10BDBC0F00000C
:40038000F80F0000001000001C1000003C1000004C100000641000007810000088100000A4100000C810000008B500F09DFD03680C2B00D1FEE7FEE708B5104E104D16E040
:4003C00029686B68AC68002204E051F8040B43F8040B0432A242F8D1E868002203E0002143F8041B04328242F9D11035013E002EE6D100F07FFDFFF745FEFEE70100000072
:400400006C11000008B5124A124B1A60124A136843F40073136000230AE0032B03D80F4A52F8231000E00E490E4A42F8231001332F2BF2D90C4B1A780C4B1A70094A0C4BA6
:400440001A6000F0D3F800220A4B1A6008BD00BF0004FA050CED00E014ED00E000000000A903000000C0FF1FBC76004004C1FF1F08ED00E000C1FF1FFEE700BFF0B4002218
:40048000174611E050F82760F3B226F0FF0608E001EB420511F812406D78A5550132013BDBB2002BF4D101371E2FEBD9F0BC7047064B1B78DBB203F00701054A11701B0912
:4004C000013213704422034B1A707047CF0100496E5800407658004008B50A46002100F03AFD08BD38B54FF41C72374B1A80182202331A7046F2A71202331A801B22023305
:400500001A70062203F27A231A7043F21332EE3B1A80023B05221A701B7843F2C82404E04FF4F07000F0D0FC013C24B1274B1B7813F0800FF4D114B90120FFF79DFF40F2AB
:400540001252234B1A8001224FF040231A7041F2512203F508731A80002419250CE01D4B1B7803F0010343EA440404F003044FF4F07000F0A9FC013D0DB1032CEFD115B96C
:400580000320FFF779FF144B4FF480721A8041214FF040221170202102F50072117007221A7000220D490A704820023108701A7002230B4A1370083A137002F2A132137877
:4005C00043F00303137038BD8040004010420040224200402542004004400040064000400940004008B500F0ABFC08BD70B572B6374A137843F00403137000240CE035491D
:4006000063001A1952000A4423445B00C8589188FFF762FF0134E4B2062CF0D94FF090402D49FFF72BFF2D4A137843F0020313701032137843F002031370294C237843F03F
:4006400040032370A2F58632513A137843F010031370244824490822FFF7C4FF234824490A22FFF7BFFF234823490822FFF7BAFF224823490822FFF7B5FF224822490822A9
:40068000FFF7B0FF214822490822FFF7ABFF214821490822FFF7A6FF204821490A22FFF7A1FF204A137843F0080313701E4E01253570FFF717FFC12333701C4B1D70FFF761
:4006C000F7FE1B4821460E22FFF78CFF70BD00BFE8460040181100007C00004803500140A04300400251004050060048C051004058060048F251004064060048125100408C
:400700006C0600483251004074060048425100407C0600485251004084060048605100408C060048224300400048004004000840B043004001BE704710B5044605E0084BF4
:40074000186800F0C1FBA4F50044B4F5004FF6D8034B586800FB04F000F0B6FB10BD00BF0CC1FF1F70B504460E46074B1D681F2802D90020FFF7DEFF04F01F04103455F83E
:40078000240045F8246070BD08ED00E038B504460D46072902D90020FFF7CCFF1F2C02D90020FFF7C7FF04F01F0000F1604000F564406D01EDB2057038BD00BF7222074B81
:4007C0001A70202202331A700622633B1A70472210331A70002252331A7070478164004010B500F079FB04460A4A137843F0200313700232137843F010031370013A137862
:4008000043F01003137000F045F8204600F068FB10BD00BF9164004008B5054B1B7823B9FFF7CCFF0122024B1A70FFF7D9FF08BD9CC1FF1F024B187800F07F00704700BF41
:4008400063640040084B1B78DBB213F0200F06D0064A1078C0B213F01E0F02D17047002070470020704700BF6364004042640040014B1878704700BF62640040034B1B785F
:4008800013F0040FFAD1024B187070476264004045640040054A137843F0010313701032137843F001031370704700BFA243004010B50222114B1A7081220E3B1A700823B6
:4008C0000F4A13701132137000240E4B1C704FF400420D4B1A600F200721FFF757FF0F200A49FFF73FFF1022094B1A70094B1C70094B1C70094B1C7010BD00BFD649004002
:40090000CA490040DC49004080E100E06D090000A2C1FF1FA6C1FF1FAEC1FF1FA4C1FF1F08B500F0D9FA064A137843F0040313701032137843F00403137000F0D1FA08BD10
:40094000A543004008B5074B1B7823B9FFF7B0FF0122044B1A70FFF7E3FF4FF40042024B1A6008BD9EC1FF1F00E100E038B5A44B1C78E4B2A34B1B7813F0400F00F0378188
:4009800014F0010F00F01B819E4B1B78453B052B00F21281DFE813F006008200100110010600DE0004F0DF0504F00A04082C42D1944B1B78DBB2452B35D1934B1B7813F084
:4009C000FF0F10D0914B1B681B78DBB2904A137004228B4B1A7001228E4B1A704622894B1A702C46EBE08C4B1B7813F0020F0DD08A4A137843F00A0313706022814B1A70C9
:400A00004FF40042864B1A602C46D8E0854A137843F0100313701022834B1A700422023B1A702C46CBE00022754B1A704A22754B1A702C46C3E00A2C2BD1784A137843F01C
:400A4000A0031370744B1B7813F0020F14D06D4B1B7813F0080F01D0092300E00A236F4A11780B4313706022664B1A704FF400426B4B1A602C46A2E06A4A137843F0100399
:400A800013701022684B1A700422023B1A702C4695E00020FFF74EFE2C4690E014F0020F35D15C4B1B78584A1278DBB2934210D2584A1378DBB255490968CB5CDBB254494D
:400AC0000B7004214E4B197013780133DBB2137075E0514B1B7813F0020F0CD04F4A137843F00A0313706022464B1A704FF400424B4B1A6063E04B4A137843F010031370AC
:400B00001022494B1A700422023B1A7057E0424B1B7813F0020F0CD0404A137843F09A0313706022374B1A704FF400423C4B1A6045E03C4A137843F01003137010223A4BFF
:400B40001A700422023B1A70344A137843F09003137034E0354A1378DBB2354908682C490978C9B2C15413780133DBB213701378304A1278DBB2934203D21022204B1A70D1
:400B80001DE0254B1B7813F0020F0CD0234A137843F00903137060221A4B1A704FF400421F4B1A600BE01F4A137843F0100313700022134B1A7002E00020FFF7BBFD14F04B
:400BC000200F1CD00F4B1B7813F0080F01D0012300E00223114A11780B431370114A137803F0EF0313701022064B1A7038BD054B1B7813F0100F02D11022024B1A7038BDFE
:400C0000D7490040A2C1FF1FA5C1FF1FB0C1FF1FD8490040A4C1FF1FACC1FF1FA6C1FF1F80E100E0D6490040D9490040AEC1FF1FA8C1FF1FADC1FF1F002948D070B40C4673
:400C400026490978C9B2102906D12549097811F0080F11D1002112E020490978C9B260290CD14FF400451F490D601F4D297801F0F7012970002102E0012100E0022149BB1A
:400C80004526164D2E700026184D2E70184D2A70184A1460184A1370134C227802F0FD0222704200D2B21548027013F0010F06D012220B4B1A700422023B1A7002E00122E5
:400CC000074B1A704FF400420D4B1A6002E0022108467047084670BC704700BFA2C1FF1FD949004080E200E0A6C1FF1FA4C1FF1FA5C1FF1FB0C1FF1FACC1FF1FD84900409B
:400D000000E100E01A4B1B78DBB2102B29D1194B1B7813F0080F26D14FF40042164B1A604000C0B229B140F001004922104B1A7002E045220E4B1A70104B1870012201335D
:400D40001A700F4B1B7813F0010FFAD00C4B1B7803F00A030A2B08D11022054B1A700320704702207047012070470020704700BFA2C1FF1FD949004080E100E0D849004075
:400D8000D74900400A4B1B7813F0040F0ED01023074A13700421023A1170064A1370064B1B7813F0210FFAD00020704702207047D9490040A2C1FF1FD7490040114B1B7878
:400DC00013F0040F1BD0104B18700422013B1A7046220E4B1A700E4B1B7813F0010FFAD00B4B1B7813F0020F04D16022074B1A70002070476022054B1A70032070470220B0
:400E0000704700BFD9490040D8490040A2C1FF1FD7490040114B1B7813F0040F1BD0104B1B78DBB2492B05D100220E4B1A704A220B4B1A700B4B1B7813F0010FFAD00A4B77
:400E40001B78DBB218B11021064A117004E06021034A117000E0002318467047D9490040A2C1FF1FD7490040D84900404FF40042084B1A60084B1878C0B2084B1B7813F008
:400E8000400F01D040F004004FF40042044B1A60704700BF80E100E0A6C1FF1FA2C1FF1F00E100E04FF40043044A1360044A107800211170034A1360704700BF80E100E0DC
:400EC000A6C1FF1F00E100E00230800803D000BF01380046FCD17047EFF3108072B6704780F31088704700BF014B1868704700BF7CC1FF1F0E4B70B51E460E4C0025E41A8F
:400F0000A410A54204D056F8253098470135F8E700F01AF9084B094C1E46E41AA4100025A54204D056F8253098470135F8E770BD5411000054110000541100005C110000AA
:400F400010B5431E0A44914204D011F8014B03F8014FF8E710BD03460244934202D003F8011BFAE77047000000000000696E6974444947494F333243617264732829202D15
:400F800020726561636865642066756E6374696F6E000000696E6974444947494F333243617264732829202D2065786974696E672066756E6374696F6E0000002A2A2A2073
:400FC00050534F4320546573742053746174696F6E2076302E3120283F20666F722061206C697374206F6620636F6D6D616E647329202A2A2A000000202D2048656C700066
:4010000050534F4320546573742053746174696F6E20436F6D6D616E647300003F203D20446973706C617920746869732068656C702073637265656E0000000052203D20C5
:4010400052756E20546573740000000058203D20526573657420546573742053746174696F6E0000202D2052756E6E696E6720546573747300000000436F6D706C65746527
:401080006420546573747300202D20526573657474696E6720546573742053746174696F6E000000526573746F72656420546573742053746174696F6E20746F2044656679
:4010C00061756C7473000000556E7265636F676E697A656420636F6D6D616E642C203F20746F206C69737420636F6D6D616E647300000000636865636B5061726D436F754A
:401100006E743A20506172616D65746572206572726F723A20000000C8490040190020510040100000000140001000140140000800400140000A004C0140000200500140AA
:401140002000000043000000F8B500BFF8BC08BC9E4670474D00000005040000F8B500BFF8BC08BC9E467047290000008011000008C1FF1F78000000380000000000000067
:40118000000000000000C05D80BB000030000000006CDC02000000000000000000000000000000000000000000000000000000000000000044110000000000000000000008
:4011C000000000000000000000000000000000000000000000000000000000000000000000000000000000000000000000000000000000001CC1FF1F0000000000000000F4
:4012000000000000000000000000000000000000000000000000000000000000000000000000000000000000000000000000000000000000000000000000000000000000AE
:40124000000000000000000000000000000000000000000000000000000000000000000000000000000000000000000000000000000000000000000000000000000000006E
:40128000000000000000000000000000000000000000000000000000000000000000000000000000000000000000000000000000000000000000000000000000000000002E
:4012C00000000000000000000000000000000000000000000000000000000000000000000000000000000000000000000000000000000000000000000000000000000000EE
:020000040001F9
:0200000480007A
:400000000A520040036400404A0001402D010140480201405303014059040140520501404E0601404207014001090140010B0140010D0140010F0140041501400917014019
:40004000011B01400B4001401741014015420140064301400A4401400345014003460140044701400A4801400C490140094C0140064D014006500140015101400063013598
:4000800018A5192220CC216930806028613A78088172820F8338020103010D0117011A0125013401350139203A023E104001450449FF4A074BFF4C404D204EF04F05500834
:4000C0005608580459045A045B045D905F01604061A86240632080FF810884F38501860C89018A408C018D1E904F91019290944C950496A39803990C9EB39F02A008A40427
:40010000A512A70CA80CA91EAC42AD1CAF02B08CB101B27CB30EB40FB710BA2ABF40D602D713D804D904DB04DF01024004100588068009200C100E521402172A18441E50BF
:400140001F2D21202421260327402B202D082E482F283308376938403B023C403D283E8243804820510858805C016D286F157602772A8C80C0F8C2F2C4F0CA72CCF2CEF9C7
:40018000D008D6880507060109070A020C040F601360160119611A021B0E1D221F11216025602B602D442F9130013118338034043507360237603A023E503F0140254104BD
:4001C00042064401450C460E480549FF4AFF4BFF4C624DA04EF04F41500C5401580459045A045B045C015F016640670269106A306B106D106E106F12840186028C028E0115
:40020000A403A802AA01B202B601BE44D418D804DB04DF01010803020420052C06010C040F28100411041A221D401E081F022410262027422C402E082F05341035803662CA
:4002400039013A013D283E404440468847404D204E024F0856405B025C805D115E08600461406C406D406E106F207494750180848210840486018D018E108F2090249240A7
:4002800093089410954097409A889B149C129D809E40A020A11CA202A780A940B340C0E5C260C406CAF0CCB0CE70D0B0D230D6F1D80CE008E240E650EA20042807040801F9
:4002C0000A060B010F0C10201218170218181A221B061C381E041F0A2012210C222023022420250129012D013101323E350E36013B203E403F015608580459045B045D9008
:400300005F0184018503860689028B018D048F189130930C94039502960497019B0C9C019D039E06A330A406A601A720AD04AF38B001B102B204B402B501B73CBB80BE1523
:40034000BF11C013C102C6B0C7ECC838C9FFCAFFCBFFCEF0CF44D00CD608D804D904DA04DB04DD90DF01E6C0EA40EB02001003200504088109200C400F2010A013041480C4
:4003800015141608170218101A011E501F1021202348250126102702288029042B062CA02D802F40312833403450350437023A203B843C083D843E203F28441145684740B0
:4003C000560957205A805D406402670278407B0282508A108B108D4194089514960197429B149C029D049E01A020A108A302A640A790A880AE01B010B440C026C2ABC42C9C
:40040000CADFCCFECE7ED070D618D810E2B0EE900008021004210503072408020B500D230E020F0C1020110A1201132414041540171018201A011B501C011D231E201F0400
:40044000200223082418272528182C102D102E082F403018314032203310340135203606370F38803B803E143F15580459045F01830384018503860887048E01910192015D
:40048000930696029707A004A406A801AC06B001B101B208B302B504B606B880BA38BB20BE41BF05D804D904DC11DF01000403020505070A09080A400B200C400D090E40D5
:4004C0000F0411801208130A14021715180419041B911D011EA41F402008210222242408254027612F52310432083302358436203702380439023B043D803E083F2081808B
:40050000830886108B019408978098429A089B1E9D84A108A302A404A540A640A790AA40C0F5C2FCC4FFCAD0CCF3CE73E280EE01EE01E240E008E2108A049208E280EA01A2
:4005400083408A04920C9B40B004B103B720E620EE30EA015008578059805C405E02608063016408D4E0D6E0D8C0531257085C015F4062816440804087408D808F819440EE
:4005800097019D80A408A601A780A808B080D4E0D6E0D8C0E660EE203E1050205620800882208A808B088E019C40A408A681A708AA01AF10B302B401CE20D460E2A0EA206C
:4005C000EE4084408B0496109C40A420E61008201010110214805E018D01C202C40CD601E2088601960198B08C2098B0E20292809810A880AA40561080048A109001930853
:400600009610B020B401D440E680500459405C016708894090099308AA10D4A0D680D880EA8010401320148078107E4092809810C40EDE0378407C8098C0AB20DC01DE04B9
:4006400000030101080309010A030B0103C0000000FFFF00FF0000003000000F3F003F0000000000000C0C000C000000000B0B000000000000FFFFFFFF00000000FFFF0096
:40068000FF000000001010000000000080004080800080000000000000000000000000000000000000000000000000000000000000000000000000000000000000000000DB
:4006C00000000000000000000000000000000000000000000000000000000000000000000000000000000000000000000000000000000000000000000000000000000000FA
:4007000000000000000000000000000000000000000000000000000000000000000000000000000000000000000000000000000000000000000000000000000000000000B9
:400740000000000000000000000000000000000000000000000000000000000000000000000000000000000000000000000000000000000000000000000000000000000079
:400780000000000000000000000000000000000000000000000000000000000000000000000000000000000000000000000000000000000000000000000000000000000039
:0200000490006A
:0400000000004005B7
:0200000490105A
:04000000BC90ACAF55
:0200000490303A
:02000000279146
:0200000490402A
:4000000000000000000000000000000000000000000000000000000000000000000000000000000000000000000000000000000000000000000000000000000000000000C0
:400040000000000000000000000000000000000000000000000000000000000000000000000000000000000000000000000000000000000000000000000000000000000080
:0200000490501A
:0C00000000012E13306900012E1B57FA7E
:00000001FF