:400000000040002011000000E1010000E101000008B5044B1A6803F53F5302331A6000F0E7F800BFFA46004010B5054C237833B9044B13B10448AFF300800123237010BD14
:4000400080C1FF1F00000000D80D0000084B10B51BB108480849AFF300800848036803B910BD074B002BFBD0BDE81040184700BF00000000D80D000084C1FF1F08C1FF1FC7
:400080000000000008B5012000F0C8FA322000F07DFA002000F0C2FA322000F077FA08BD10B562B600F078F800F04CF84FF4FA7000F06CFA00F068F800F060F8FFF7E2FFD0
:4000C00000F084F80028F5D000F076F8044600F067F8204600F09CFAECE700BF10B5044600F018FE2020002100F044FD204600F09DFD00F07FFD2020012100F03BFD002085
:4001000000F0C0FD044600F075FD00F003FE204610BD00BF38B505460C4600F0FBFD08490D704C7020200222002300F0BDFC00F0D5FD10F0020FFAD000F0ECFD38BD00BF2D
:40014000A0C1FF1F08B500F035FB05200021FFF7E1FF0020F021FFF7DDFF02200021FFF7D9FF04200021FFF7D5FF0620F021FFF7D1FF0820FFF7B2FF08BD00BF08B5014690
:400180000A20FFF7C7FF08BD08B50920FFF7A6FFC0F3071008BD00BF08B500F079FA08BD10B5044600F0A0FA10F0040FFAD1204600F0A0FA10BD00BF08B500F077FA10F0CF
:4001C000200FFAD000F07AFA08BD00BF08B500F06DFA00F0200303F0FF0003B1012008BD08B500F0B9FD03680C2B00D1FEE7FEE708B5104E104D16E029686B68AC680022C3
:4002000004E051F8040B43F8040B0432A242F8D1E868002203E0002143F8041B04328242F9D11035013E002EE6D100F09BFDFFF737FFFEE7010000003C0E000008B5124A5B
:40024000124B1A60124A136843F40073136000230AE0032B03D80F4A52F8231000E00E490E4A42F8231001332F2BF2D90C4B1A780C4B1A70094A0C4B1A6000F0D1F80022A9
:400280000A4B1A6008BD00BF0004FA050CED00E014ED00E000000000E101000000C0FF1FBC76004004C1FF1F08ED00E000C1FF1FFEE700BFF0B40022174611E050F82760DE
:4002C000F3B226F0FF0608E001EB420511F812406D78A5550132013BDBB2002BF4D101371F2FEBD9F0BC7047064B1B78DBB203F00701054A11701B09013213704422034B86
:400300001A707047CF0100496E5800407658004008B50A46002100F056FD08BD38B54FF41C72334B1A80182202331A7046F2A71202331A801B2202331A70062203F27A23D4
:400340001A7043F21332EE3B1A80023B05221A701B7843F2C82404E04FF4F07000F0ECFC013C24B1234B1B7813F0800FF4D15222214B1A70214B1B78DBB2214A13704FF424
:40038000E262204B1A8041F25122023B1A80002419250CE01C4B1B7803F0010343EA440404F003044FF4F07000F0C6FC013D0DB1032CEFD115B90320FFF77AFF134B4FF487
:4003C00080721A8007221A700121114A117008210232117000221A7005331A700222083B1A700C4A137843F00303137038BD00BF8040004010420040004200400F010049C5
:40040000A146004022420040254200400440004006400040A243004008B500F0C9FC08BD70B572B63F4A137843F00403137000240CE03D4963001A1952000A4423445B0038
:40044000C8589188FFF764FF0134E4B2062CF0D900240BE03449A3001A1952000A44D06A116B0622FFF7D8FF0134E4B2002CF1D04FF090402D49FFF71DFF2D4A137843F0F3
:40048000020313701032137843F002031370294C237843F040032370A2F58632513A137843F010031370244824490822FFF7B4FF234824490A22FFF7AFFF23482349082290
:4004C000FFF7AAFF224823490822FFF7A5FF224822490822FFF7A0FF214822490822FFF79BFF214821490822FFF796FF204821490A22FFF791FF204A137843F008031370DF
:400500001E4E01253570FFF709FF812333701C4B1D70FFF7E9FE1B4821460E22FFF77CFF70BD00BFE8460040DC0D00008000004803500140A043004002510040CC06004894
:40054000C0510040D4060048F2510040E006004812510040E806004832510040F006004842510040F8060048525100400007004860510040080700482243004000480040BD
:4005800004000840B043004001BE704710B5044605E0084B186800F0CFFBA4F50044B4F5004FF6D8034B586800FB04F000F0C4FB10BD00BF0CC1FF1F70B504460E46074BEA
:4005C0001D681F2802D90020FFF7DEFF04F01F04103455F8240045F8246070BD08ED00E038B504460D46072902D90020FFF7CCFF1F2C02D90020FFF7C7FF04F01F0000F156
:40060000604000F564406D01EDB2057038BD00BF014B1870704700BF72640040044A137803F0EF03000100F01000184310707047505100407222074B1A70202202331A7048
:400640000622693B1A70472210331A7000224E331A7070478C64004010B500F075FB04460A4A137843F0200313700232137843F0100313700B3A137843F01003137000F0A2
:4006800045F8204600F064FB10BD00BF9C64004008B5054B1B7823B9FFF7CCFF0122024B1A70FFF7D9FF08BD9CC1FF1F024B187800F07F00704700BF6E640040084B1B787D
:4006C000DBB213F0200F06D0064A1078C0B213F01E0F02D17047002070470020704700BF6E6400404E640040014B1878704700BF63640040034B1B7813F0040FFAD1024B88
:40070000187070476364004047640040054A137843F0010313701032137843F001031370704700BFA243004010B50222114B1A7081220E3B1A70082202331A70042211333A
:400740001A70002401331C704FF400420A4B1A600F200721FFF744FF0F200849FFF72CFF1022074B1A70074B1C70074B1C70074B1C7010BDD649004080E100E0DD0700008D
:40078000A2C1FF1FA6C1FF1FAEC1FF1FA4C1FF1F08B500F0D9FA064A137843F0040313701032137843F00403137000F0D1FA08BDA543004008B5074B1B7823B9FFF7B4FFB2
:4007C0000122044B1A70FFF7E3FF4FF40042024B1A6008BD9EC1FF1F00E100E038B5A44B1C78E4B2A34B1B7813F0400F00F0378114F0010F00F01B819E4B1B78453B052B89
:4008000000F21281DFE813F006008200100110010600DE0004F0DF0504F00A04082C42D1944B1B78DBB2452B35D1934B1B7813F0FF0F10D0914B1B681B78DBB2904A137007
:4008400004228B4B1A7001228E4B1A704622894B1A702C46EBE08C4B1B7813F0020F0DD08A4A137843F00A0313706022814B1A704FF40042864B1A602C46D8E0854A1378C0
:4008800043F0100313701022834B1A700422023B1A702C46CBE00022754B1A704A22754B1A702C46C3E00A2C2BD1784A137843F0A0031370744B1B7813F0020F14D06D4BCA
:4008C0001B7813F0080F01D0092300E00A236F4A11780B4313706022664B1A704FF400426B4B1A602C46A2E06A4A137843F0100313701022684B1A700422023B1A702C46F2
:4009000095E00020FFF740FE2C4690E014F0020F35D15C4B1B78584A1278DBB2934210D2584A1378DBB255490968CB5CDBB254490B7004214E4B197013780133DBB213709C
:4009400075E0514B1B7813F0020F0CD04F4A137843F00A0313706022464B1A704FF400424B4B1A6063E04B4A137843F0100313701022494B1A700422023B1A7057E0424BBD
:400980001B7813F0020F0CD0404A137843F09A0313706022374B1A704FF400423C4B1A6045E03C4A137843F01003137010223A4B1A700422023B1A70344A137843F090033C
:4009C000137034E0354A1378DBB2354908682C490978C9B2C15413780133DBB213701378304A1278DBB2934203D21022204B1A701DE0254B1B7813F0020F0CD0234A1378B1
:400A000043F00903137060221A4B1A704FF400421F4B1A600BE01F4A137843F0100313700022134B1A7002E00020FFF7ADFD14F0200F1CD00F4B1B7813F0080F01D00123AB
:400A400000E00223114A11780B431370114A137803F0EF0313701022064B1A7038BD054B1B7813F0100F02D11022024B1A7038BDD7490040A2C1FF1FA5C1FF1FB0C1FF1FA2
:400A8000D8490040A4C1FF1FACC1FF1FA6C1FF1F80E100E0D6490040D9490040AEC1FF1FA8C1FF1FADC1FF1F002948D070B40C4626490978C9B2102906D12549097811F07E
:400AC000080F11D1002112E020490978C9B260290CD14FF400451F490D601F4D297801F0F7012970002102E0012100E0022149BB4526164D2E700026184D2E70184D2A7073
:400B0000184A1460184A1370134C227802F0FD0222704200D2B21548027013F0010F06D012220B4B1A700422023B1A7002E00122074B1A704FF400420D4B1A6002E00221C2
:400B400008467047084670BC704700BFA2C1FF1FD949004080E200E0A6C1FF1FA4C1FF1FA5C1FF1FB0C1FF1FACC1FF1FD849004000E100E01A4B1B78DBB2102B29D1194B75
:400B80001B7813F0080F26D14FF40042164B1A604000C0B229B140F001004922104B1A7002E045220E4B1A70104B1870012201331A700F4B1B7813F0010FFAD00C4B1B7880
:400BC00003F00A030A2B08D11022054B1A700320704702207047012070470020704700BFA2C1FF1FD949004080E100E0D8490040D74900400A4B1B7813F0040F0ED01023C6
:400C0000074A13700421023A1170064A1370064B1B7813F0210FFAD00020704702207047D9490040A2C1FF1FD7490040114B1B7813F0040F1BD0104B18700422013B1A7098
:400C400046220E4B1A700E4B1B7813F0010FFAD00B4B1B7813F0020F04D16022074B1A70002070476022054B1A70032070470220704700BFD9490040D8490040A2C1FF1F47
:400C8000D7490040114B1B7813F0040F1BD0104B1B78DBB2492B05D100220E4B1A704A220B4B1A700B4B1B7813F0010FFAD00A4B1B78DBB218B11021064A117004E0602163
:400CC000034A117000E0002318467047D9490040A2C1FF1FD7490040D84900404FF40042084B1A60084B1878C0B2084B1B7813F0400F01D040F004004FF40042044B1A6038
:400D0000704700BF80E100E0A6C1FF1FA2C1FF1F00E100E04FF40043044A1360044A107800211170034A1360704700BF80E100E0A6C1FF1F00E100E00230800803D000BF6D
:400D400001380046FCD17047EFF3108072B6704780F31088704700BF014B1868704700BF7CC1FF1F0E4B70B51E460E4C0025E41AA410A54204D056F8253098470135F8E79C
:400D800000F04AF8084B094C1E46E41AA4100025A54204D056F8253098470135F8E770BD240E0000240E0000240E00002C0E000010B5431E0A44914204D011F8014B03F864
:400DC000014FF8E710BD03460244934202D003F8011BFAE77047000000000000C8490040190020510040100000000140001000140140000800400140000A004C014000021F
:400E0000005001402000000060520040C40600480600000043000000F8B500BFF8BC08BC9E4670474D0000003D020000F8B500BFF8BC08BC9E46704729000000500E0000A3
:400E400008C1FF1F780000003800000000000000000000000000E02EC05D00001800000000366E0100000000000000000000000000000000000000000000000000000000F3
:400E800000000000140E0000000000000000000000000000000000000000000000000000000000000000000000000000000000000000000000000000000000000000000010
:400EC000000000001CC1FF1F0000000000000000000000000000000000000000000000000000000000000000000000000000000000000000000000000000000000000000F7
:400F000000000000000000000000000000000000000000000000000000000000000000000000000000000000000000000000000000000000000000000000000000000000B1
:400F40000000000000000000000000000000000000000000000000000000000000000000000000000000000000000000000000000000000000000000000000000000000071
:400F80000000000000000000000000000000000000000000000000000000000000000000000000000000000000000000000000000000000000000000000000000000000031
:400FC00000000000000000000000000000000000000000000000000000000000000000000000000000000000000000000000000000000000000000000000000000000000F1
:020000040001F9
:0200000480007A
:40000000095200400364004002010140310201403D0301405004014045050140480601404107014002090140050B01403F0C0140400D0140550E0140340F014001150140D7
:4000400005170140011B01400B400140184101400E42014008430140094401400345014001460140014701400C4801400C490140084C0140064D01400450014001510140DF
:4000800000C5019918541915206A21C6318034407808830F8C728E3885048F0405020701110113021D021F012003210326032A032C012E0230013101360237023E413F417D
:4000C000580459045B045F0181048701880189018D029002910294029901A002A301A701AB02AC02AD02B201B304B402B502B701BE14BF54D401D804D904DB04DF010010BB
:4001000008060904108011801406165019101B041D021F402244230826802780281629042A012C80320233103602374038243A403B023D0858115A88640167026D046F8521
:40014000740576047702810183808405870888808A408E808F04950497809D109F01A704AF41B510C002C20CC4F9CA8FCC95CE4FD60FE240E610EA4002010418050C062203
:40018000070309010A060B0E0C280F0C101212201310143815011604170618201D101E0120012310251028202A182B082E012F033001323E3310350F3B203E013F04580417
:4001C00059045F0180018202840C8501880C8C028E01910198039E049F01A001A101A202A808B001B101B20CB402B808BB0CBE15BF01C003C504C9FFCA07CBFFCC40CD2097
:40020000CEF0CF05D008D804D904DA04DC10DF01E040E1A8E240E3200010035204A0062607500A210B440E0A0F0212861520170118101A801D281E802004211022102310B0
:40024000250526042A0A2B052C802E03320233483602374138043A203B403D083E0845084C204F0C5601570185208A409434970298049B409D049E019F10A080A202A50587
:40028000A802ABC0AD40AE12B102B604B702C0FFC2CFC45BCA8FCC9BCE4ED040E220EA12EE310001050C07020E010F0C1101170619011F012201230227042A012B0A2F012D
:4002C000330E340137013B083E103F40580459045F01820184068608870188068A188E0A8F049104921094149501960899019C069D049E08A102A201AA01AB04AC01B00115
:40030000B103B21EB304B902BA08BE01BF04C035C102C5ECC7B0C823C9FFCAFFCBFFCEF0CF44D00CD804D904DA04DF01E6C0EA40EB0202410318074109800A200B401004C4
:4003400012821404164018201A401B081F202204234026482710280429102A012C202E802F48328233593510360A374038843AC03C043F40431849044A014B8253028A0404
:400380008D84908492209420974298049A019B409D049F10A020A203A70AAA40B310B684C09FC20DC45BCAF5CCFFCE5AD006D208E280EE80B610E8409620AB10AD10B040EF
:4003C000B32000030110040F0508080C09180A030C080D44100213E31403153C160C17C21801191C1A101BE11D801E03200F21C0240425FF280C29E72B182F043010320F1B
:400400003338351F37C03A283B2056025711580459045B045F01800482018A088C028E019001920696089B01A407A701A807B007B208B501BB20BE04D804D904DC10DF01AD
:40044000008002840501060207140A800B100D080E860F4011181440172819031A801B041D1C1F252110241027052B102D022F25321036C137143C803E2A5E206C106D58EC
:400480007520762A77288B408C108E01920493D09410957096209A049B109D359E039F25A040A211A310A704B048B204B401B610C0FBC2FCC476CAF2CCF4CEF0D620E68037
:4004C00001030202071009030A020D020F09130415011601170A1B10251029103002310333103401370C39083A203E013F40403541024206440145C0470E481249FF4AFF9C
:400500004BFF4C624DA04EF04F41500C5418580459045A045B045C015F016640670269106A306B106D106E106F1281048202840185068701880189088D08930195079602DC
:4005400099069A02A108A401A501A706A801A902AD06AF01B108B201B307B602BA80BB08BE04D804D904DC01DF010010010202080402051C062807080A200D100F201504C5
:4005800017141B111E201F40200123502601271029142D292E403008310133103601372839153A013B403D543E024001422849024A0952045B01630A8E408F10C07AC26407
:4005C000C460CAF6CCE7CEFFD00ED20CD601D80CE040EA0182409240AF20B240EA20EA0151015320570A6309664067048501D4E0D6E0D8C0E64052025340550859085F4036
:400600006010660467028309864087608D088F0197019E40A728AF06B704D4E0D6E0D8C0E210E6F0EA503E105220558087408A209780AA04B202B410B508CE20D460E2104C
:40064000EA808B0496109A209B40A580AB40B220EE8009401010142063088F04C202C40CD802E0029830B140EE049830983053048308930896109A209B40A210AE10B18077
:40068000D420E220EE105B405E205F0866209A209B48A210AA10D480D6A0D880EA8010401320148078107C209830C40EDE0378407C8098C0AB20DC01DE04000308010A0346
:4006C0000E0303C0213500003000000000FFFF00FF0000003000000F3F003F0000000000000C0C000C000000000B0B000000000000F5F5F5F500000000FFFF00FF000000DB
:400700000010100000000000800040808000800000000000000000000000000000000000000000000000000000000000000000000000000000000000000000000000000059
:400740000000000000000000000000000000000000000000000000000000000000000000000000000000000000000000000000000000000000000000000000000000000079
:400780000000000000000000000000000000000000000000000000000000000000000000000000000000000000000000000000000000000000000000000000000000000039
:4007C00000000000000000000000000000000000000000000000000000000000000000000000000000000000000000000000000000000000000000000000000000000000F9
:4008000000000000000000000000000000000000000000000000000000000000000000000000000000000000000000000000000000000000000000000000000000000000B8
:0200000490006A
:0400000000004005B7
:0200000490105A
:04000000BC90ACAF55
:0200000490303A
:02000000FCC141
:0200000490402A
:4000000000000000000000000000000000000000000000000000000000000000000000000000000000000000000000000000000000000000000000000000000000000000C0
:400040000000000000000000000000000000000000000000000000000000000000000000000000000000000000000000000000000000000000000000000000000000000080
:0200000490501A
:0C00000000012E13306900012E1A2D2A79
:00000001FF