:400000000040002011000000610200006102000080B500AF024A034B1B68136000F02AF9BC760040FA460040080002230000087608000323000010760800042300002876E4
:4000400008000523000030760500062300002070050007230000307005000823000060700500FE230000707019000A220000C84910000B220000005140000C220000305144
:400080001000FE220000F051FF0F0E220000000001000F220000FF0F800110220000001480011122000000168001122200000018800113220000001A0002142200000040AB
:4000C00080001522000000438004162200000044800017220000004D2000FE22000000500600FE230000605208001A230000005180001B230000804D80001C230000004C6B
:4001000080001D230000804C80001E230000801B80001F2300008015800020230000801980002123000080178000222300000049800023230000804980002423000080489D
:40014000800025230000804380002623000000428000FE230000804201000000010000000100000000480140010000000048004001000000002001400100000000200040AE
:4001800010B5054C237833B9044B13B10448AFF300800123237010BD80C1FF1F0000000018130000084B10B51BB108480849AFF300800848036803B910BD074B002BFBD0E0
:4001C000BDE81040184700BF000000001813000084C1FF1F08C1FF1F0000000080B582B000AF0023FB7100F009FB00F011FE62B63B1D082019460222002300F0EBFC034681
:40020000FB71FB79002BF3D100BF00F06BFD034603F00403002BF8D100F0ACFD0346FB71012000F047FEFB79022B0BD10A4800F0FFFD3B79184600F07FFF7B79184600F080
:400240007BFF04E0054800F0F3FD00F075FD4FF4FA6000F099FFCBE71C1300002013000080B500AF01F020F803461B680C2B00D1FEE7FEE780B586B000AF224B7B61224BFD
:400280003B61204B7B6135E03B691B68FB603B695B68BB603B699B683B6000237B600CE0FB681A68BB681A60BB680433BB60FB680433FB607B6804337B607A683B689A42D4
:4002C000EED13B69DB683B6000237B6008E0BB6800221A60BB680433BB607B6804337B607A683B689A42F2D13B6910333B617B69013B7B617B69002BC6D100F0DBFFFFF7A5
:400300006DFFFEE701000000FC13000080B582B000AF174B174A1A60174A174B1B6843F40073136000237B600FE07B68032B04D8124A7B6852F8233000E0114B11497A6878
:4003400041F822307B6801337B607B682F2BECD90D4B1B78DAB20D4B1A700D4B094A1A6000F074F90B4B00221A600837BD4680BD0CED00E00004FA0514ED00E000000000F5
:400380006102000000C0FF1FBC76004004C1FF1F08ED00E000C1FF1F80B584B000AFF860B9607A60F868B9687A6800F0A9FF1037BD4680BD80B483B000AF0346FB71FEE75E
:4003C00080B483B000AF434B00221A60424B10221A70424B01221A70414B00221A70414B4FF498721A80404B01221A703F4B03221A703F4B3F4A92B21A803F4B47F608025C
:400400001A803E4B00221A803D4B4FF480421A803C4B09221A703C4B0D221A703B4B18221A703B4B19221A70BFF35F8F394B01221A70BFF35F8F00BF2A4B1B889BB2002BE5
:40044000FAD100237B600DE07B68DA00324B13441946324A7B6852F823309BB20B807B6801337B607B68252BEED9BFF35F8F294B01221A70BFF35F8F00BF294B1B78DBB262
:4004800003F00103002BF8D100BF264B1B78DBB203F00103002BF8D100BF234B1B78DBB203F00103002BF8D100BF204B1B78DBB203F00103002BF8D100BF1D4B1B78DBB262
:4004C00003F00103002BF8D10C37BD465DF8047B704700BFA0C1FF1F007600401070004019700040007800400278004003780040047800402800000006780040047600403A
:400500000676004029700040397000406970004079700040147000400C7800402C130000187000402870004038700040687000407870004080B582B000AF284B02221A7035
:400540004FF0402308221A70254B03221A70254B254A1278D2B21A70244B08221A80244B41F251221A800023FB7019237B6013E0FB785B00DAB21F4B1B78DBB203F001033A
:40058000DBB21343DBB203F00303FB70782000F07BFE7B68013B7B607B68002B02D0FB78032BE5D17B68002B02D10320FFF702FF114B4FF480721A800F4B07221A700F4BA8
:4005C00000221A700E4B48221A700B4B00221A700C4B02221A700837BD4680BD0043004000420040A146004008010049224200402042004025420040044000400640004007
:40060000084000400140004080B483B000AF0B4B1B78FB710A4AFB7903F00703DBB21370084AFB791B09DBB21370074B44221A700C37BD465DF8047B704700BFCF0100498C
:400640006E5800406F5800407658004080B500AF72B62A4B01221A70FFF76CFF274B81221A70274A264B1B78DBB243F00403DBB21370FFF7A5FE234A224B1B78DBB243F01F
:400680000203DBB21370204A1F4B1B78DBB243F00203DBB213701D4A1C4B1B78DBB243F04003DBB213701A4A194B1B78DBB243F01003DBB21370174817490822FFF76CFEEE
:4006C000164817490822FFF767FE164816490822FFF762FE154A154B1B78DBB243F00803DBB21370124B01221A70FFF78DFF114806490E22FFF750FE80BD00BF0048004021
:40070000E84600400350014013500140A0430040C2430040C251004090060048125100409806004822510040A00600482243004004000840B043004080B500AF134B822246
:400740001A70134B81221A70124B08221A70124B0F221A70114B00221A70114B4FF400421A600F20072100F06BFD0F200D4900F03FFD0D4B10221A700C4B00221A700C4B0A
:4007800000221A700B4B00221A7080BDD6490040C8490040CA490040DB490040DC49004080E100E029080000ABC1FF1FB5C1FF1FB4C1FF1FB6C1FF1F80B582B000AF00F0C4
:4007C0006BFD0346FB710B4A0A4B1B78DBB243F00403DBB21370084A074B1B78DBB243F00403DBB21370FB79184600F059FD0837BD4680BDA5430040B543004080B500AFDF
:40080000074B1B78002B04D1FFF796FF044B01221A70FFF7D1FF034B4FF400421A6080BDA8C1FF1F00E100E080B582B000AFA84B1B78FB71A74B1B78DBB203F04003DBB2D7
:40084000002B00F0AC81FB7903F00103002B00F08381A04B1B78DBB2453B052B00F2788101A252F823F000BF81080000A9090000510B0000510B000081080000970A000024
:40088000FB7923F02003FB71FB7903F00A03DBB2082B46D18F4B1B78DBB2452B3AD18E4B1B78DBB2002B0FD08C4A8D4B1B681B78DBB21370864B04221A708A4B01221A7088
:4008C000844B46221A706EE0874B1B78DBB203F00203002B0FD0854B1B78DBB243F00A03DAB2824B1A707B4B60221A70804B4FF400421A6057E07F4A7E4B1B78DBB243F02A
:400900001003DBB213707C4B10221A70704B04221A7048E06E4B00221A706E4B4A221A701AE1FB7903F00A03DBB20A2B37D16F4B1B78DBB263F05F03DAB26C4B1A706A4B20
:400940001B78DBB203F00203002B19D0614B1B78DBB203F00803002B01D0092300E00A23DAB2624B1B78DBB21343DAB25F4B1A70584B60221A705E4B4FF400421A6012E094
:400980005C4A5C4B1B78DBB243F01003DBB21370594B10221A704E4B04221A70DCE0002000F0E6FBD8E0D7E0FB7903F00203002B42D14C4B1B78DAB2474B1B78DBB29A42C1
:4009C00014D2464A464B1B6846490978C9B20B441B78DBB213703E4B04221A70414B1B78DBB20133DAB23F4B1A7053E03E4B1B78DBB203F00203002B0FD03C4B1B78DBB2B2
:400A000043F00A03DAB2394B1A70324B60221A70374B4FF400421A603CE0364A354B1B78DBB243F01003DBB21370334B10221A70274B04221A708FE02B4B1B78DBB203F0EC
:400A40000203002B0FD0294B1B78DBB263F06503DAB2264B1A701F4B60221A70244B4FF400421A6016E0234A224B1B78DBB243F01003DBB21370204B10221A70144B0422BB
:400A80001A701A4B1B78DBB263F06F03DAB2174B1A7061E060E0194B1B68194A1278D2B213440E4A1278D2B21A70154B1B78DBB20133DAB2124B1A70114B1B78DAB2114BCC
:400AC0001B78DBB29A421FD2014B10221A703EE0D7490040ABC1FF1FB9C1FF1FD8490040B0C1FF1FB6C1FF1FB7C1FF1FB5C1FF1F80E100E0D6490040D9490040ACC1FF1F25
:400B0000B4C1FF1FB8C1FF1F2C4B1B78DBB203F00203002B0FD02A4B1B78DBB243F00903DAB2274B1A70274B60221A70264B4FF400421A600BE0254A244B1B78DBB243F08C
:400B40001003DBB21370224B00221A7004E003E0002000F00DFB00BFFB7903F02003002B28D0184B1B78DBB203F00803002B01D0012300E00223DAB2114B1B78DBB21343EA
:400B8000DAB20F4B1A70114A104B1B78DBB223F01003DBB213700B4B10221A700AE0094B1B78DBB203F01003DBB2002B02D1054B10221A700837BD4680BD00BFB7C1FF1FD8
:400BC000B5C1FF1FABC1FF1F80E100E0D6490040D749004080B485B000AF396011461A460346FB710B46BB7113467B710223FB733B68002B59D0304B1B78DBB2102B0CD1BB
:400C00002E4B1B78DBB203F00803002B02D10023FB7315E00123FB7312E0274B1B78DBB2602B0DD10023FB73254B4FF400421A60244B1B78DBB223F00803DAB2214B1A70EB
:400C4000FB7B002B31D11C4B49221A701E4B00221A701E4ABB7913701D4A3B6813601D4A7B791370174B1B78DBB223F00103DAB2144B1A70184AFB795B00DBB243F00103E3
:400C8000DBB213707B7903F00103002B06D00B4B12221A70114B04221A7002E0074B01221A700F4B4FF400421A60FB7B18461437BD465DF8047B7047ABC1FF1FD949004045
:400CC00080E200E0B5C1FF1FB4C1FF1FB8C1FF1FACC1FF1FB7C1FF1FD8490040D749004000E100E080B483B000AF0F4B4FF400421A600E4B1B78FB710D4B1B78DBB203F01F
:400D00004003DBB2002B03D0FB7943F00403FB71084B4FF400421A60FB7918460C37BD465DF8047B704700BF80E100E0B5C1FF1FABC1FF1F00E100E080B483B000AF0A4B8C
:400D40004FF400421A60094B1B78FB71074B00221A70074B4FF400421A60FB7918460C37BD465DF8047B704780E100E0B5C1FF1F00E100E080B400AF034B1B78DBB21846EA
:400D8000BD465DF8047B7047B4C1FF1F80B500AF282000F0F9F9032000F09EF9052000F0F3F9032000F098F90F2000F0EDF9032000F092F9012000F0E7F9022000F08CF98A
:400DC000052000F0E1F9062000F074F80E2000F071F82C2000F06EF8082000F06BF8012000F068F80C2000F065F8032000F062F8052000F0C9F980BD80B500AF0C2000F073
:400E000059F8024B01221A7080BD00BFA9C1FF1F80B500AF054B1B78002B04D1FFF7B6FF024B01221A70FFF7E7FF80BDAAC1FF1F80B584B000AF78600123FB737B681B78DD
:400E4000BB730BE0BB7B184600F01AF8FB7B7A6813441B78BB73FB7B0133FB73BB7B002BF0D11037BD4680BD80B582B000AF0346FB71FB79184600F003F80837BD4680BD8B
:400E800080B584B000AF0346FB7100F02DF8FB791B09FB73FB7B184600F0E2F8FB7903F00F03FB73FB7B184600F0DAF81037BD4680BD00BF80B584B000AF0346FB7100F02C
:400EC00013F8FB791B09FB73FB7B184600F004F9FB7903F00F03FB73FB7B184600F0FCF81037BD4680BD00BF80B582B000AF4FF4CA737B60554A554B1B78DBB223F07F03D6
:400F0000DBB21370524B1B78DBB223F00F03FB704F4AFB7843F00F03DBB213704D4B1B78DBB223F00F03FB704A4AFB7813704A4B1B78DBB223F00F03FB70474AFB78137055
:400F4000424A424B1B78DBB223F02003DBB213703E4A3E4B1B78DBB243F04003DBB21370002000F033F9394A384B1B78DBB243F01003DBB21370012000F028F9374B1B783C
:400F8000FB70324A314B1B78DBB223F01003DBB21370002000F01AF9FB7803F00803FB702A4A2A4B1B78DBB243F01003DBB21370012000F00BF9254A244B1B78DBB223F0F4
:400FC0001003DBB21370FB78002B02D10A2000F0FDF87B68013B7B60FB78002B02D07B68002BBDD1194A194B1B78DBB223F04003DBB21370154A154B1B78DBB223F07F0387
:40100000DBB21370124A124B1B78DBB223F00F03DBB213700F4B1B78DBB223F00F03FB700C4AFB7843F00F03DBB213700A4B1B78DBB223F00F03FB70074AFB7843F00F035C
:40104000DBB213700837BD4680BD00BF205100402251004023510040245100402151004080B582B000AF0346FB711A4A194B1B78DBB243F02003DBB21370164A154B1B7837
:40108000DBB223F04003DBB21370002000F09EF8104A104B1B78DBB223F00F03DBB213700C490C4B1B78DAB2FB791343DBB243F01003DBB20B70012000F088F8054A054BED
:4010C0001B78DBB223F01003DBB213700837BD4680BD00BF2051004080B582B000AF0346FB71144A134B1B78DBB223F06003DBB21370104A0F4B1B78DBB223F00F03DBB2F8
:4011000013700C490B4B1B78DAB2FB791343DBB243F01003DBB20B70012000F057F8054A044B1B78DBB223F01003DBB213700837BD4680BD2051004080B582B000AF0346DA
:40114000FB71FB791B09DBB21A46084B9B5C1846FFF78AFEFB7903F00F03044AD35C1846FFF782FE0837BD4680BD00BFC413000080B483B000AF0346FB7101BE0C37BD46A9
:401180005DF8047B704700BF80B582B000AF786008E00C4B1B68184600F076F87B68A3F500437B607B68B3F5004FF2D8064B1B687A6802FB03F3184600F066F80837BD46A5
:4011C00080BD00BF18C1FF1F10C1FF1F80B582B000AF0346FB80FB88044A127802FB03F3184600F051F80837BD4680BD14C1FF1F80B584B000AF03463960FB710F4B1B6899
:40120000FB60FB791F2B02D90020FFF7B1FFFB7903F01F0310339B00FA6813441B68BB60FB7903F01F0310339B00FA6813443A681A60BB6818461037BD4680BD08ED00E01D
:4012400080B582B000AF03460A46FB711346BB71BB79072B02D90020FFF78AFFFB791F2B02D90020FFF784FFFB7903F01F0303F1604303F56443BA795201D2B21A7008372A
:40128000BD4680BD000000000230800803D000BF01380046FCD17047EFF3108072B6704780F31088704700BF014B1868704700BF7CC1FF1F0E4B70B51E460E4C0025E41AD1
:4012C000A410A54204D056F8253098470135F8E700F082F8084B094C1E46E41AA4100025A54204D056F8253098470135F8E770BDE4130000E4130000E4130000EC13000038
:4013000010B5431E0A44914204D011F8014B03F8014FF8E710BD00000000000030780000493243204572726F72210000780100007001000068010000600100005801000088
:40134000580100005801000058010000A0C1FF1FA0C1FF1FA0C1FF1FA0C1FF1FA0C1FF1FA0C1FF1FA0C1FF1FA0C1FF1FA0C1FF1FA0C1FF1FA0C1FF1FA0C1FF1FA0C1FF1FEF
:40138000A0C1FF1FA0C1FF1F000000480800004810000048900000481001004890010048100200489002004810030048900300481004004890040048100500489005004859
:4013C000100600483031323334353637383941424344454643000000F8B500BFF8BC08BC9E467047A50100000D030000F8B500BFF8BC08BC9E467047810100001014000050
:4014000008C1FF1F7800000040000000000000000000000000366E01C05D0000180000000000E02E0000000000000000000000000000000000000000000000000000000025
:4014400000000000D4130000000000000000000000000000000000000000000000000000000000000000000000000000000000000000000000000000000000000000000085
:40148000000000001CC1FF1F000000000000000000000000000000000000000000000000000000000000000000000000000000000000000000000000000000000000000031
:4014C00000000000000000000000000000000000000000000000000000000000000000000000000000000000000000000000000000000000000000000000000000000000EC
:4015000000000000000000000000000000000000000000000000000000000000000000000000000000000000000000000000000000000000000000000000000000000000AB
:40154000000000000000000000000000000000000000000000000000000000000000000000000000000000000000000000000000000000000000000000000000000000006B
:40158000000000000000000000000000000000000000000000000000000000000000000000000000000000000000000000000000000000000000000000000000000000002B
:020000040001F9
:0200000480007A
:400000000200000003000000000000C000000000000000100000004000000000000000000000000000000080000000000000000000000000000000100000002000040000F7
:400040000000000000000000000000000000000000000000000000000000000000000000000000000000000000000000000000000000000000000000000000000000000080
:400080000000000000000000000000000000000000000000000000000000000000000000800000200008000000000000000000000000000000000000000000000000000098
:4000C0000000000000000000000000000000000000000000000000000000000000000000000000000000000000000000000000000000000000000000000000000000000000
:4001000000000000000000000000001000000040800000000000000000000000000000000000000000000000000000000000000000000000000000000000000000000000EF
:4001400000000000000000000000000000000000000000000E000000000000000000000000000000000000000000000000000300000000000000000000000000000000006E
:40018000000000000000000000000000000000000000000000000000000000000000000000000000000000000000000000000000000000000000000000000000000000003F
:4001C00000000000000000000000000000000000000000000000000000000000000000000000000000000000000000000000000008000000010000000000090000000000ED
:4002000000000000000000000000000000000000000000000000000000000000000000000000000000000000000000000000000000000000000000000000000000000000BE
:40024000000000000000000000000000000000000000000000000000000000000000000000000000000000000000000000000000080000000100000000000900000000006C
:40028000000000000000000000000000000000000000000000000000000000000000000000000000000000000000000000000000000000000000000000000000000000003E
:4002C00000000000000000000000000000000000000000000000000000000000000000000000000000000000000000000000000000000400000000000000000000000000FA
:4003000000000000000000000000000000000000000000000000000000000000000000000000000000000000000000000000000000000000000000000000000000000000BD
:400340000000000000000000000000000000000000000000000000000000000000000000000000000000000000000000000000000000040000000000000000000000000079
:4003800000000000000000000000000000000000000000000000000000000000000000000000200000004000000000000000000000000000000000000000000000000000DD
:4003C00000000000000000000000000000000000000000000000000000000000000000000000000000000000000000000000000000000000000000000000000000000000FD
:400400000000200000000000000000000000000200002000000040000000000000000000000000000000000000002000000000000000000200000000000010000000000206
:40044000000000000000000000000000000000000000000030000000000000000000000000000000000000000000000080002000100000008000000000009000000000008C
:40048000000000000000000000000000000000000000200000000000000000000000000000000000000010000000000000000000000000000000000000000000000000000C
:4004C00000000000000000000000000000000000000000000000000000000000000000000000000000000000000000000000000000002000000000000000000000000000DC
:4005000000000000000000000000000000000000000000000000000000000000000000000000000000001000000000000000000000000000000000000000000000000000AB
:40054000000000000000000000000000000000000000000000000000000000000000000000000000000000000000000000000000000000000000000000000000000000007B
:40058000000000000000000000000000000000000000000000000000000000000000000000000000000000000000000000000000000000000000000000000000000000003B
:4005C00000000000000000000000000000001000000000000000000000000000000000000000000000000000000000000000000000000000000000000000000000000000EB
:4006000000000000000000000000000000000000000000000000000000000000000000000000000000000000000000000000000000000000000000000000000000000000BA
:40064000000000000000000000000000000000000000000000000000000000000000200000000000000000000000000000000000000000000000000000000000000000005A
:40068000000000000000000000000000000000000000030003000000000B0B0000000000007F7F000000000000000000000000000000000000000000000000000000000020
:4006C00000000000000000000000000000000000000000000000000000000000000000000000000000000000000000000000000000000000000000000000000000000000FA
:4007000000000000000000000000000000000000000000000000000000000000000000000000000000000000000000000000000000000000000000000000000000000000B9
:400740000000000000000000000000000000000000000000000000000000000000000000000000000000000000000000000000000000000000000000000000000000000079
:400780000000000000000000000000000000000000000000000000000000000000000000000000000000000000000000000000000000000000000000000000000000000039
:0200000490006A
:0400000000004004B8
:0200000490105A
:04000000BC90ACAF55
:0200000490303A
:020000005AB1F3
:0200000490402A
:4000000000000000000000000000000000000000000000000000000000000000000000000000000000000000000000000000000000000000000000000000000000000000C0
:400040000000000000000000000000000000000000000000000000000000000000000000000000000000000000000000000000000000000000000000000000000000000080
:0200000490501A
:0C00000000012E13306900012E1A8B1A2B
:00000001FF