:400000000040002011000000BD010000BD01000008B5044B1A6803F53F5302331A6000F0D5F800BFFA46004010B5054C237833B9044B13B10448AFF300800123237010BD6E
:40004000B0C1FF1F0000000070060000084B10B51BB108480849AFF300800848036803B910BD074B002BFBD0BDE81040184700BF0000000070060000B4C1FF1F08C1FF1F45
:400080000000000008B500F09BFA40F00200C0B200F090FA00F094FA00F0FD0000F08AFA08BD00BFF8B562B6012000F083FA632000F06EFA012000F059FA022000F05CFA83
:4000C000332000F05FFA342000F068FA00F06CFA00F003040022374B1A7002E02C4600E02C46344B1B78042BFBD8DFE803F00318404B5A00FFF7C6FF01222E4B1A702E4D73
:4001000028781044C0B200F037FA28783330C0B200F044FA002000F04DFA0027E1E700F043FA064600F00305A542DAD06C40E4B214F0020F0DD010F0020F0AD01E4BD85D90
:4001400000F01AFA0137FFB2272F02D90222194B1A7014F0010FC1D016F0010FC0D0164BD85D3330C0B200F019FA2C46B9E700F027FA40F00100C0B200F01CFA03220D4B4D
:400180001A70AEE700F010FA10F0040FA9D1FFF779FF0A2000F0D4F90422064B1A7000279FE700F001FA10F0040FFAD00022014B1A7096E7CCC1FF1F0CC1FF1F08B500F016
:4001C00017FA03680C2B00D1FEE7FEE708B5104E104D16E029686B68AC68002204E051F8040B43F8040B0432A242F8D1E868002203E0002143F8041B04328242F9D1103567
:40020000013E002EE6D100F0F9F9FFF74BFFFEE701000000C806000008B5124A124B1A60124A136843F40073136000230AE0032B03D80F4A52F8231000E00E490E4A42F82B
:40024000231001332F2BF2D90C4B1A780C4B1A70094A0C4B1A6000F0D9F800220A4B1A6008BD00BF0004FA050CED00E014ED00E000000000BD01000000C0FF1FBC76004003
:4002800004C1FF1F08ED00E000C1FF1FFEE700BFF0B40022174611E050F82760F3B226F0FF0608E001EB420511F812406D78A5550132013BDBB2002BF4D10137162FEBD9DE
:4002C000F0BC7047064B1B78DBB203F00701054A11701B09013213704422034B1A707047CF0100496E5800407658004008B50A46002100F0B4F908BD38B50F22384B1A8098
:400300001A2202331A70F92202331A801B2202331A70022203F27A231A7008224FF040231A7043F2133203F212231A80023B05221A701B7843F2C82404E04FF4F07000F0EF
:4003400047F9013C24B1274B1B7813F0800FF4D114B90120FFF79AFF40F20C52224B1A8009224FF040231A7041F2512203F508731A80002419250CE01C4B1B7803F0010372
:4003800043EA440404F003044FF4F07000F020F9013D0DB1032CEFD115B90320FFF776FF134B4FF480721A800321124A1170124A1278D2B211490A7007221A700022A1F206
:4003C0009B610A704820023108701A700222033B1A700B4A137843F00303137038BD00BF80400040104200402242004025420040044000400042004008010049A146004052
:40040000A243004008B500F01FF908BD70B572B6344A137843F00403137000240CE0324963001A1952000A4423445B00C8589188FFF75CFF0134E4B2062CF0D94FF0904018
:400440002A49FFF725FF2A4A137843F0020313701032137843F002031370264C237843F040032370A2F58632513A137843F010031370214821490822FFF7C4FF20482149E1
:400480000822FFF7BFFF204820490822FFF7BAFF1F4820490822FFF7B5FF1F481F490A22FFF7B0FF1E481F490822FFF7ABFF1E481E490822FFF7A6FF1D4A137843F0080316
:4004C00013701C4E01253570FFF716FF81233370194B1D70FFF7F6FE184821460E22FFF791FF70BDE8460040740600005C00004803500140A04300400251004070060048D9
:40050000C251004078060048F25100408006004812510040880600483051004090060048425100409C06004852510040A4060048224300400048004004000840B0430040FB
:4005400010B5044605E0084B186800F041F8A4F50044B4F5004FF6D8034B586800FB04F000F036F810BD00BF38C1FF1F014B1870704700BF70640040014B1870704700BF82
:4005800075640040014B1870704700BF73640040014B1870704700BF76640040014B1870704700BF77650040014B1878704700BF62640040014B1870704700BF766500403A
:4005C000014B1878704700BF76650040000000000230800803D000BF01380046FCD17047EFF3108072B6704780F31088704700BF014B1868704700BFA8C1FF1F0E4B70B526
:400600001E460E4C0025E41AA410A54204D056F8253098470135F8E700F044F8084B094C1E46E41AA4100025A54204D056F8253098470135F8E770BDB0060000B0060000D9
:40064000B0060000B806000010B5431E0A44914204D011F8014B03F8014FF8E710BD03460244934202D003F8011BFAE77047000000000000205100401000605100401000F8
:4006800000000140001000140140000800400140000A004C01400002005001402000000043000000F8B500BFF8BC08BC9E4670474D00000019020000F8B500BFF8BC08BCB3
:4006C0009E46704729000000D806000008C1FF1FA8000000200000000000000004080C1014181C2024282C3030303030303030303030303030303030303030302824201C29
:400700001814100C080400000000803E007D0000200000000048E8010000000000000000000000000000000000000000000000000000000000000000A00600000000000033
:40074000000000000000000000000000000000000000000000000000000000000000000000000000000000000000000000000000000000000000000048C1FF1F0000000052
:400780000000000000000000000000000000000000000000000000000000000000000000000000000000000000000000000000000000000000000000000000000000000039
:4007C00000000000000000000000000000000000000000000000000000000000000000000000000000000000000000000000000000000000000000000000000000000000F9
:4008000000000000000000000000000000000000000000000000000000000000000000000000000000000000000000000000000000000000000000000000000000000000B8
:400840000000000000000000000000000000000000000000000000000000000000000000000000000000000000000000000000000000000000000000000000000000000078
:020000040001F9
:0200000480007A
:400000000852004046000140360101404002014042030140470401404C0501404B060140430701400615014048160140491701400418014001190140011B014011400140A0
:400040000F4101400B42014002430140024801400D490140054D0140055001400095015C1804192120A321C9281029100104021005080608080209010D800F4010041308D9
:40008000170219201A201B101D101E021F20210222042601270428012B012C082D402F803020321F37FF38083A023B0C3E043F40580459045B045C115F018105830A850CD9
:4000C000870189098B06910C93019C069E09A00CA203A405A60AA80BAA04B008B101B204B302B402B508B601B704BB08BE55BF51D804D904DC10DF01000201040304080293
:400100000A090F0210041101120213041508171118101A801B011D011E021F28202221042204250426902750280429142A823180321233043701382039453C203D083F028E
:4001400069456A20701071087243730481018340858086818A10C00EC28BC47FCA0FCC8FCEEFE280050807071202130F1C011E0C2009210C2204230324092509260427069A
:4001800028052A08300131083208330134023502360437043E453F55580459045B045F01808082408304840887088A028C408E808F029108920494109504962098019B01E5
:4001C0009C02A004A310A502A601A820A901AA10AE08B0FFB71FB980BE01BF40D804D904DB04DF010002014402040304080609200A010C400F82111112221410150A1711B2
:4002000019011E041F4A23012420265129112A042C5031243202351036A03781388039053D085C205E045F8068016915704071207201735087408E019010910892C8960223
:400240009B109C029D149E809F05A10CA301A602B308B601B720C00FC29FC47FCAC7CC87CE4BD670E210EA7000070105045006A008040E0810011402170718501AA21B07CA
:400280001C301D041EC11F03203022C026F0310232FF330435013B023E043F14580459045C105F01820883208604870889048A028E018F0290809108924093409410950258
:4002C000962098019B209C049D209F40A002A304A408A701A820AA10AB10AC40AD01AE80B2FFB31FB760B908BB80BE04BF04D804D904DB04DF010018028003020442058415
:4003000006200704080109080A400B0A0C240E820F201108124015941602170218201F0821252402250428102B102C202D802E012F083244331034103602374439C23A80B4
:400340003C803D043E226D146E8374647640770280408110841085208601901092C89351954296029B109C249D149E809F04A108A682A740A802A904AF0AB250B410C0FF1F
:40038000C2FFC4FCCAF0CCFECEF1EAA0EE4001010208060407200A010B200C100E200F0210801240130415041602172018011B081C041D201F4020022310240827012820A9
:4003C00029022A102B402C402D082E802F20356036FF371F39803B203E403F40580459045B045F01810985128AF08B208E088F01903092C0945096A09710980799039C30A0
:400400009D189EC1A004A450A6A2A704A802AB02AC01AF08B2FFB307B738B988BE04D804D904DF01001003020442051408300A580B020C280EA2100413551594170119080F
:400440001F40228426102706280529082C282D802F4030103108328035043601375038203B4A3C803E053F204C014D804E0259025A01670C6D146E826F1074617620770183
:400480007C407E019022935195809602970A98019C209D149F44A108A682A742AD04C0F3C2FFC4FFCAFECCFECEFF800483409008A740B204EA800055010602AA0318090A17
:4004C0000A250B140D060E550F18131E16091A551E9522022615290A2A552B142F013003311F320C343036C03AAA3F01580459045B045F01820183048420861087088A0209
:400500008B018D048E0891089204944095029680981099209A209B409C049DE0A002A302A401A710A808A9C0AB20AC80AD01AE40B160B2FFB31FB780B908BE04BF04D80409
:40054000D904DB04DF01000801020242030405900740081809080A050B800C100E221002132514081680170419081C801D101E221F452010214022012740280829082A4209
:400580002F063010320233443702382039053B803C823EA061086320680669056A016B206C046F02701072527305815E8201841086819208941095809656970A99809A20EA
:4005C0009B069D169F40A001A282A752C0DFC2EFC47FCA3FCC8FCEBFB980BF40D904DF012002B00153805501560859405B025C08620866018101820185408808D4E0D6E048
:40060000D8C0E220E690512157085B085E416320640886088F10A608B208B782D4E0D6E0D8C0E21087089F08A520AD01AE01B008B308B640E210EA10EE40AD20EA108420E0
:40064000E610071053045B406020835093089820B304C020D4A0D840E020E68064089808B008D801E801000308030A0310011A0100FFFF00FF000000000F0F000F00000055
:40068000000C0C000C000000000B0B0000000000020000FFFD20FD000000000000FFFF00FF00000000101000100000000000000000000000000000000000000000000000B8
:4006C00000000000000000000000000000000000000000000000000000000000000000000000000000000000000000000000000000000000000000000000000000000000FA
:4007000000000000000000000000000000000000000000000000000000000000000000000000000000000000000000000000000000000000000000000000000000000000B9
:400740000000000000000000000000000000000000000000000000000000000000000000000000000000000000000000000000000000000000000000000000000000000079
:400780000000000000000000000000000000000000000000000000000000000000000000000000000000000000000000000000000000000000000000000000000000000039
:0200000490006A
:0400000000004005B7
:0200000490105A
:04000000BC90ACAF55
:0200000490303A
:02000000393C89
:0200000490402A
:4000000000000000000000000000000000000000000000000000000000000000000000000000000000000000000000000000000000000000000000000000000000000000C0
:400040000000000000000000000000000000000000000000000000000000000000000000000000000000000000000000000000000000000000000000000000000000000080
:0200000490501A
:0C00000000012E13306900012E1769A5C5
:00000001FF