:400000000040002011000000090100000901000008B5044B1A6803F53F5302331A6000F07BF800BFFA46004010B5054C237833B9044B13B10448AFF300800123237010BD30
:4000400080C1FF1F00000000A8050000084B10B51BB108480849AFF300800848036803B910BD074B002BFBD0BDE81040184700BF00000000A805000084C1FF1F08C1FF1F37
:400080000000000008B500F037FA40F00200C0B200F02CFAFA2000F0EFF900F02DFA00F0FD0000F023FA08BD10B562B6FFF7EAFF632000F009FA012000F0F4F9322000F06E
:4000C000FDF9302000F0F4F9622000F003FA00F007FA00F00400C4B200F002FA00F00400C0B28442F8D0FFF7CDFF00F0F9F910F0040F04D0002000F0F9F90424ECE701208A
:4001000000F0F4F90024E7E708B500F00DFA03680C2B00D1FEE7FEE708B5104E104D16E029686B68AC68002204E051F8040B43F8040B0432A242F8D1E868002203E0002118
:4001400043F8041B04328242F9D11035013E002EE6D100F0EFF9FFF7A7FFFEE7010000000006000008B5124A124B1A60124A136843F40073136000230AE0032B03D80F4A45
:4001800052F8231000E00E490E4A42F8231001332F2BF2D90C4B1A780C4B1A70094A0C4B1A6000F0CFF800220A4B1A6008BD00BF0004FA050CED00E014ED00E00000000096
:4001C0000901000000C0FF1FBC76004004C1FF1F08ED00E000C1FF1FFEE700BFF0B40022174611E050F82760F3B226F0FF0608E001EB420511F812406D78A5550132013B03
:40020000DBB2002BF4D101371A2FEBD9F0BC7047064B1B78DBB203F00701054A11701B09013213704422034B1A707047CF0100496E5800407658004008B50A46002100F043
:40024000AAF908BD38B50F22324B1A801A2202331A70F92202331A801B2202331A70022203F27A231A7008224FF040231A7043F2133203F212231A80023B05221A701B78AB
:4002800043F2C82404E04FF4F07000F03DF9013C24B1214B1B7813F0800FF4D103221F4B1A701F4B1B78DBB21E4A137008221E4B1A8041F25122023B1A80002419250CE082
:4002C0001A4B1B7803F0010343EA440404F003044FF4F07000F018F9013D0DB1032CEFD115B90320FFF778FF114B4FF480721A8007221A7000220F490A70482002310870CD
:400300001A700222033B1A700B4A137843F00303137038BD80400040104200400042004008010049A146004022420040254200400440004006400040A243004008B500F002
:400340001FF908BD70B572B6344A137843F00403137000240CE0324963001A1952000A4423445B00C8589188FFF766FF0134E4B2062CF0D94FF090402A49FFF72FFF2A4A96
:40038000137843F0020313701032137843F002031370264C237843F040032370A2F58632513A137843F010031370214821490822FFF7C4FF204821490822FFF7BFFF20485D
:4003C00020490822FFF7BAFF1F4820490822FFF7B5FF1F481F490A22FFF7B0FF1E481F490822FFF7ABFF1E481E490822FFF7A6FF1D4A137843F0080313701C4E0125357065
:40040000FFF720FF81233370194B1D70FFF700FF184821460E22FFF791FF70BDE8460040AC0500006C00004803500140A043004002510040E0070048C2510040E8070048FA
:40044000F2510040F007004812510040F80700483051004000080048425100400C0800485251004014080048224300400048004004000840B043004010B5044605E0084B56
:40048000186800F041F8A4F50044B4F5004FF6D8034B586800FB04F000F036F810BD00BF0CC1FF1F014B1870704700BF70640040014B1870704700BF73640040014B1870CB
:4004C000704700BF75640040014B1870704700BF74650040014B1870704700BF77650040014B1878704700BF66640040014B1870704700BF76650040014B1878704700BF91
:4005000076650040000000000230800803D000BF01380046FCD17047EFF3108072B6704780F31088704700BF014B1868704700BF7CC1FF1F0E4B70B51E460E4C0025E41A83
:40054000A410A54204D056F8253098470135F8E700F044F8084B094C1E46E41AA4100025A54204D056F8253098470135F8E770BDE8050000E8050000E8050000F00500002B
:4005800010B5431E0A44914204D011F8014B03F8014FF8E710BD03460244934202D003F8011BFAE770470000000000002051004010006051004010000000014000100014C8
:4005C0000140000800400140000A004C01400002005001402000000043000000F8B500BFF8BC08BC9E4670474D00000065010000F8B500BFF8BC08BC9E46704729000000CA
:400600001006000008C1FF1F7800000020000000000000000000E02EC05D00001800000000366E01000000000000000000000000000000000000000000000000000000003D
:4006400000000000D805000000000000000000000000000000000000000000000000000000000000000000000000000000000000000000000000000000000000000000009D
:40068000000000001CC1FF1F00000000000000000000000000000000000000000000000000000000000000000000000000000000000000000000000000000000000000003F
:4006C00000000000000000000000000000000000000000000000000000000000000000000000000000000000000000000000000000000000000000000000000000000000FA
:4007000000000000000000000000000000000000000000000000000000000000000000000000000000000000000000000000000000000000000000000000000000000000B9
:400740000000000000000000000000000000000000000000000000000000000000000000000000000000000000000000000000000000000000000000000000000000000079
:400780000000000000000000000000000000000000000000000000000000000000000000000000000000000000000000000000000000000000000000000000000000000039
:020000040001F9
:0200000480007A
:400000000B520040430001402C01014049020140420301403F04014045050140460601404D070140010B0140040C0140010D01404714014049150140491601404517014089
:400040001040014014410140114201400B43014003460140014701400F4801401D490140014C0140034D014005500140009901AC18641931203C2196281029106005610CCD
:400080007808020103040604070808080C100E200F0212021440168018011B011C021D022004210126082710282029082A102C802D042E4032FF351F39203E043F1058044E
:4000C00059045B045F01870D91099304940495019602970E9802990C9A059B03A206A402A50DA60DA702AA06B004B104B201B301B408B508B602B702BA28BB80BE41BF1582
:40010000D804D904DC11DF010022010A020109A40A800E2810101151121015081608170619041C081E281F6223042620275229462A102F203120324036103706388039057E
:400140003E0868106955704071A87340822087028B40C00FC26FC47FCA4FCCECCE4BE6800506070111071506160F1701180319061A0C1B01200A220524042503260B270402
:400180002A0F30013202330434043501360837023E553F54580459045F01820183048604870888088B018C108E208F02912092029340944096809710980199049B209C02F4
:4001C0009D029F20A004A101A340A508A608A720A820AA10AB20AC80AE40AF20B11FB2FFB760B902BB80BE04BF01D804D904DB04DF010022010A02210302080409040A859B
:400200000E281010115115081608170219041C901D201F80200222012301240225102608281429022B022E082F10310632603610370638A039053C0868106955705A7205F5
:4002400080018110844085488C109344950896809B069C109D489E09A004A108A214A401A504B750C00FC26FC47FCA4FCCEFCE4FE210EA10EE4004E005020806090B0A38E7
:400280000E010F01102014401501180A1A541B021E1E2480280A2A142B042C062E18330834FF350739203E103F04580459045F018101820484408680880189028C108E2004
:4002C0008F029080924093049602970199089A089D049E01A002A310A408A708A820AA10AC04B51FB6FFB920BE40BF10D804D904DB04DF0100080140030806A1070809089D
:400300000A260B400C100E400F21100A13041514174119201F4020182110270429602A802D042F40321033083410354036013708380839203B403C803F21450446206D14EB
:400340006E426F4074407640771980108D10920293459508968097209B029C109D409E01A00BA108A214A506AA08AD20B780C0F7C2FFC4F7CAC4CCF6CEBEE610EA4000E0E2
:400380000308040A0510061408060A380E010F201006110112181304140A1654171019051A1E1D1A20202104230124802705284029082F0530FF31043301350237383980A5
:4003C0003E013F155407580459045B045F018101826587088E559055910492AA950896029A559B019F04A205A302A655AA09AB10AD02AE85B0C0B203B40CB51FB630B92094
:40040000BAAABF10D804D904DF0102010380041205040701081009020A280C040E400F241005110813011408150116401714181819401AA61B991C8023042402252826828D
:40044000280129102A022B012F5930A0320534883690370239043B013C803D013E04480449205C805D205F088514874089088D808E02930194089548968497209A409B1657
:400480009C109D409E01A005A214A516A708AA40AB10C0F9C27EC47FCAFDCCFFCED3D670E210E630B44039023F0159045F0124400201030404400680070809800A080B20B4
:4004C0000C100E200F2011A01202134015081604174018011B011C021D022004230224082710282029042A102C802D012E40311F32FF3360358039023B083E043F015804A3
:4005000059045B045F018504870288078C028D068E059101940596029701980799019D029F04A501A806A901AA01B004B106B202B401B501BE15BF10D804D904DF01002ADC
:4005400002410520070209800AA40C100E2010021115140419081C801F2420682110220424802510274029082A422B042C102D2031103245340436183742388039253C08B4
:400580003D083F4046014740680269157191722681108210838C844087048F249282934094409608981099209B069D019E219F08A001A218A380A504A908AB80B702C0CF49
:4005C000C26FC44FCA6FCCFFCE5FE240E610EE40050C070308090A020C0B0E04110B1304140915071606170819061A0F1B0924032509260C2706300131013202330834040E
:400600003502360837043A203E453F55580459045B045C015F018201850A860487148808890A8B148C108E208F1E9120920293019440968099069A089B189C02A004A10634
:40064000A318A401A820AA10AC80AE40B11FB4FFB520BB0CBE10BF11D804D904DB04DC10DF0100220108020105200608070209040A890C100E280F08102211111508191050
:400680001D801F1A211622092340248025102680271029012E082F10321033013618370238483A203F08689269156D406F057020710472438310868087088C40900892A01B
:4006C000956C964897209B029D149E039F09A001A214A380A4A0A596A920AA04AB01C0CFC26FC42FCA41CCE5CE4EE61050025240550157105A015C016102660483108601F0
:400700008A40D4E0D6E0D8C0E210E6805006561059085C80600864016601810A86108C0494019E04A502B402B501D4E0D6E0D8C0E2C0E6205004550881208C0194019902B4
:400740009C819D089E04A108A502AA01AC02B408D460E680EA30840189028C048E04940899229C819D089E04A502E2409820B420E8029820502056208002848085088C2073
:40078000902099229C809D08A810D460E220E650EA20071050105102561059025C08630865207402798081408310840886108D028F0490209922A002B620C020D4E0D6C0EC
:4007C000D8C0DC80DE20E020E2C0E610982064209820D801000308030A0110031A03000000FFFF00FF000000000F0F000F000000000C0C000C000000000B0B0000000000F5
:40080000020000FFFD20FD000000000000FFFF00FF000000001010001000000000000000000000000000000000000000000000000000000000000000000000000000000070
:400840000000000000000000000000000000000000000000000000000000000000000000000000000000000000000000000000000000000000000000000000000000000078
:400880000000000000000000000000000000000000000000000000000000000000000000000000000000000000000000000000000000000000000000000000000000000038
:4008C00000000000000000000000000000000000000000000000000000000000000000000000000000000000000000000000000000000000000000000000000000000000F8
:4009000000000000000000000000000000000000000000000000000000000000000000000000000000000000000000000000000000000000000000000000000000000000B7
:0200000490006A
:0400000000004005B7
:0200000490105A
:04000000BC90ACAF55
:0200000490303A
:0200000038A81E
:0200000490402A
:4000000000000000000000000000000000000000000000000000000000000000000000000000000000000000000000000000000000000000000000000000000000000000C0
:400040000000000000000000000000000000000000000000000000000000000000000000000000000000000000000000000000000000000000000000000000000000000080
:0200000490501A
:0C00000000012E13306900012E17691159
:00000001FF