:400000000040002011000000CD040000CD04000080B500AF024A034B1B68136000F060FABC760040FA460040080002230000087608000323000010760800042300002876D1
:4000400008000523000030760500062300002070050007230000307005000823000060700500FE230000707019000A220000C84910000B220000005130000C220000205164
:400080001000FE220000F051800B0E220000000080010F2200000014800510220000001600021122000000408000122200000043800013220000004580001422000000461F
:4000C0008000152200000047800016220000004880001722000000491000FE2200001050070019230000305206001A23000060522000FE230000706408001C230000005109
:4001000080001D230000000C80001E230000800C80001F230000000E800020230000800E1000212300000050800022230000004D800023230000804D800024230000004C29
:40014000800025230000804C800026230000804780002723000080468000282300008045800029230000004480002A230000804480002B230000801B80002C2300008015CD
:4001800080002D230000800B80002E230000000D80002F230000800D800030230000000F800031230000800F8000322300008049800033230000804880003423000080438C
:4001C00080003523000000428000FE23000080420100000001000000010000000048014001000000004800400100000000200140010000000020004010B5054C237833B90D
:40020000044B13B10448AFF300800123237010BD80C1FF1F00000000A8140000084B10B51BB108480849AFF300800848036803B910BD074B002BFBD0BDE81040184700BF58
:4002400000000000A814000084C1FF1F08C1FF1F0000000080B500AF62B6002001F020F800F020FC01F03AF800F080FF00F05CFF214B02221A70204B00225A701E4B00226E
:400280009A701D4B0022DA701B4B00221A711B4B00221A70194B00225A70184B00229A70164B0022DA70154B00221A71144800F055F800F01BFF114B57221A700E4B1B7894
:4002C000022B03D10C4B01221A7002E00A4B02221A70502000F052F8062000F075FF012000F0DEFF502000F097F8002000F0D8FFFA2000F069FFDEE7ACC1FF1FB4C1FF1FC7
:40030000AC14000080B584B000AF0346FB7101F043F80346FB73FB7B03F00403002BF6D1FB79184601F044F81037BD4680BD00BF80B584B000AF78607B68FB6006E0FB682F
:400340005A1CFA601B781846FFF7DCFFFB681B78002BF4D11037BD4680BD00BF80B582B000AF78607868FFF7E3FF0D20FFF7CAFF0A20FFF7C7FF0837BD4680BD80B584B05F
:4003800000AF0346FB71FB7918461E490522002300F074FD0346FB73FB7B002BF3D100BF00F07AFE034603F00403002BF8D100F09DFE0346FB73FB7B5BB2002B1FDAFB7B1C
:4003C00003F00803002B02D00F48FFF7C7FFFB7B03F01003002B02D00C48FFF7BFFFFB7B03F02003002B02D00948FFF7B7FFFB7B03F04003002B02D00648FFF7AFFF103706
:40040000BD4680BDACC1FF1FC0140000DC140000F41400001415000080B584B000AF0346FB71FB79184623490522002300F0ACFD00BF00F031FE034603F00103002BF8D0FD
:4004400000F054FE0346FB73FB7B5BB2002B28DAFB7B03F00403002B02D01748FFF77EFFFB7B03F00803002B02D01448FFF776FFFB7B03F01003002B02D01148FFF76EFF27
:40048000FB7B03F02003002B02D00E48FFF766FFFB7B03F04003002B08D00B48FFF75EFF04E0044B1B781846FFF72CFF1037BD4680BD00BFB4C1FF1F30150000C014000076
:4004C000DC140000F41400001415000080B500AF00F0B2FF03461B680C2B00D1FEE7FEE780B586B000AF224B7B61224B3B61204B7B6135E03B691B68FB603B695B68BB60EC
:400500003B699B683B6000237B600CE0FB681A68BB681A60BB680433BB60FB680433FB607B6804337B607A683B689A42EED13B69DB683B6000237B6008E0BB6800221A6067
:40054000BB680433BB607B6804337B607A683B689A42F2D13B6910333B617B69013B7B617B69002BC6D100F06DFFFFF773FEFEE7010000004416000080B582B000AF174B4D
:40058000174A1A60174A174B1B6843F40073136000237B600FE07B68032B04D8124A7B6852F8233000E0114B11497A6841F822307B6801337B607B682F2BECD90D4B1B7865
:4005C000DAB20D4B1A700D4B094A1A6000F08AF90B4B00221A600837BD4680BD0CED00E00004FA0514ED00E000000000CD04000000C0FF1FBC76004004C1FF1F08ED00E0EE
:4006000000C1FF1F80B584B000AFF860B9607A60F868B9687A6800F03BFF1037BD4680BD80B483B000AF0346FB71FEE780B483B000AF434B00221A60424B10221A70424B9E
:4006400001221A70414B00221A70414B4FF4D4721A80404B01221A703F4B03221A703F4B3F4A92B21A803F4B47F608021A803E4B00221A803D4B4FF480421A803C4B0922FB
:400680001A703C4B0D221A703B4B18221A703B4B1B221A70BFF35F8F394B01221A70BFF35F8F00BF2A4B1B889BB2002BFAD100237B600DE07B68DA00324B13441946324AF7
:4006C0007B6852F823309BB20B807B6801337B607B68342BEED9BFF35F8F294B01221A70BFF35F8F00BF294B1B78DBB203F00103002BF8D100BF264B1B78DBB203F00103C1
:40070000002BF8D100BF234B1B78DBB203F00103002BF8D100BF204B1B78DBB203F00103002BF8D100BF1D4B1B78DBB203F00103002BF8D10C37BD465DF8047B704700BF96
:40074000A0C1FF1F00760040107000401970004000780040027800400378004004780040280000000678004004760040067600402970004039700040697000407970004072
:40078000147000400C78004048150000187000402870004038700040687000407870004080B582B000AF304B4FF49C721A802F4B18221A702E4B02221A704FF040230822DF
:4007C0001A702C4B03221A702B4B2C4A1278D2B21A702B4B08221A802A4B41F251221A800023FB7019237B6013E0FB785B00DAB2254B1B78DBB203F00103DBB21343DBB2ED
:4008000003F00303FB70782000F006FE7B68013B7B607B68002B02D0FB78032BE5D17B68002B02D10320FFF7FBFE184B4FF480721A80164B07221A70154B00221A70154BF2
:4008400048221A70114B00221A70134B02221A70124A124B1B78DBB243F00103DBB213700837BD4680BD00BF80400040824000400043004000420040A14600400801004992
:4008800022420040204200402542004004400040064000400840004001400040A243004080B483B000AF0B4B1B78FB710A4AFB7903F00703DBB21370084AFB791B09DBB25C
:4008C0001370074B44221A700C37BD465DF8047B704700BFCF0100496E5800406F5800407658004080B500AF72B62C4B01221A70FFF756FF294B81221A70294A284B1B78DA
:40090000DBB243F00403DBB21370FFF78FFE254A244B1B78DBB243F00203DBB21370224A214B1B78DBB243F00203DBB213701F4A1E4B1B78DBB243F04003DBB213701C4AF9
:400940001B4B1B78DBB243F01003DBB21370194819490822FFF756FE184819490822FFF751FE184818490822FFF74CFE174818490A22FFF747FE174A164B1B78DBB243F0CC
:400980000803DBB21370144B01221A70FFF788FF124806490E22FFF735FE80BD00480040E84600400350014013500140A0430040C2430040C2510040C80C004812510040AC
:4009C000D00C004852510040D80C004860510040E00C00482243004004000840B043004080B500AF134B02221A70134B81221A70124B08221A70124B04221A70114B002264
:400A00001A70114B4FF400421A600F20072100F025FC0F200D4900F0F9FB0D4B10221A700C4B00221A700C4B00221A700B4B00221A7080BDD6490040C8490040CA490040A4
:400A4000DB490040DC49004080E100E0D10A0000B9C1FF1FC5C1FF1FC4C1FF1FC6C1FF1F80B582B000AF00F0DFFC0346FB710B4A0A4B1B78DBB243F00403DBB21370084A11
:400A8000074B1B78DBB243F00403DBB21370FB79184600F0CDFC0837BD4680BDA5430040B543004080B500AF074B1B78002B04D1FFF796FF044B01221A70FFF7D1FF034BAC
:400AC0004FF400421A6080BDA8C1FF1F00E100E080B582B000AFA84B1B78FB71A74B1B78DBB203F04003DBB2002B00F0AC81FB7903F00103002B00F08381A04B1B78DBB2B8
:400B0000453B052B00F2788101A252F823F000BF290B0000510C0000F90D0000F90D0000290B00003F0D0000FB7923F02003FB71FB7903F00A03DBB2082B46D18F4B1B7870
:400B4000DBB2452B3AD18E4B1B78DBB2002B0FD08C4A8D4B1B681B78DBB21370864B04221A708A4B01221A70844B46221A706EE0874B1B78DBB203F00203002B0FD0854BC0
:400B80001B78DBB243F00A03DAB2824B1A707B4B60221A70804B4FF400421A6057E07F4A7E4B1B78DBB243F01003DBB213707C4B10221A70704B04221A7048E06E4B002226
:400BC0001A706E4B4A221A701AE1FB7903F00A03DBB20A2B37D16F4B1B78DBB263F05F03DAB26C4B1A706A4B1B78DBB203F00203002B19D0614B1B78DBB203F00803002B51
:400C000001D0092300E00A23DAB2624B1B78DBB21343DAB25F4B1A70584B60221A705E4B4FF400421A6012E05C4A5C4B1B78DBB243F01003DBB21370594B10221A704E4B36
:400C400004221A70DCE0002000F0B2FAD8E0D7E0FB7903F00203002B42D14C4B1B78DAB2474B1B78DBB29A4214D2464A464B1B6846490978C9B20B441B78DBB213703E4B5F
:400C800004221A70414B1B78DBB20133DAB23F4B1A7053E03E4B1B78DBB203F00203002B0FD03C4B1B78DBB243F00A03DAB2394B1A70324B60221A70374B4FF400421A609B
:400CC0003CE0364A354B1B78DBB243F01003DBB21370334B10221A70274B04221A708FE02B4B1B78DBB203F00203002B0FD0294B1B78DBB263F06503DAB2264B1A701F4BBF
:400D000060221A70244B4FF400421A6016E0234A224B1B78DBB243F01003DBB21370204B10221A70144B04221A701A4B1B78DBB263F06F03DAB2174B1A7061E060E0194B16
:400D40001B68194A1278D2B213440E4A1278D2B21A70154B1B78DBB20133DAB2124B1A70114B1B78DAB2114B1B78DBB29A421FD2014B10221A703EE0D7490040B9C1FF1F2F
:400D8000C9C1FF1FD8490040C0C1FF1FC6C1FF1FC7C1FF1FC5C1FF1F80E100E0D6490040D9490040BCC1FF1FC4C1FF1FC8C1FF1F2C4B1B78DBB203F00203002B0FD02A4BA7
:400DC0001B78DBB243F00903DAB2274B1A70274B60221A70264B4FF400421A600BE0254A244B1B78DBB243F01003DBB21370224B00221A7004E003E0002000F0D9F900BF5E
:400E0000FB7903F02003002B28D0184B1B78DBB203F00803002B01D0012300E00223DAB2114B1B78DBB21343DAB20F4B1A70114A104B1B78DBB223F01003DBB213700B4B2F
:400E400010221A700AE0094B1B78DBB203F01003DBB2002B02D1054B10221A700837BD4680BD00BFC7C1FF1FC5C1FF1FB9C1FF1F80E100E0D6490040D749004080B485B032
:400E800000AF396011461A460346FB710B46BB7113467B710223FB733B68002B56D02F4B1B78DBB2102B0CD12D4B1B78DBB203F00803002B02D10023FB7315E00123FB73D7
:400EC00012E0264B1B78DBB2602B0DD10023FB73244B4FF400421A60234B1B78DBB223F00803DAB2204B1A70FB7B002B2ED11B4B45221A701D4B00221A701D4ABB791370B1
:400F00001C4A3B6813601C4A7B791370164B1B78DBB223F00203DAB2134B1A70174AFB795B00DBB213707B7903F00103002B06D00B4B12221A70124B04221A7002E0084BC9
:400F400001221A700F4B4FF400421A60FB7B18461437BD465DF8047B704700BFB9C1FF1FD949004080E200E0C5C1FF1FC6C1FF1FC9C1FF1FC0C1FF1FC7C1FF1FD84900402C
:400F8000D749004000E100E080B485B000AF396011461A460346FB710B46BB7113467B710223FB733B68002B59D0304B1B78DBB2102B0CD12E4B1B78DBB203F00803002B32
:400FC00002D10023FB7315E00123FB7312E0274B1B78DBB2602B0DD10023FB73254B4FF400421A60244B1B78DBB223F00803DAB2214B1A70FB7B002B31D11C4B49221A70EB
:401000001E4B00221A701E4ABB7913701D4A3B6813601D4A7B791370174B1B78DBB223F00103DAB2144B1A70184AFB795B00DBB243F00103DBB213707B7903F00103002BF8
:4010400006D00B4B12221A70114B04221A7002E0074B01221A700F4B4FF400421A60FB7B18461437BD465DF8047B7047B9C1FF1FD949004080E200E0C5C1FF1FC4C1FF1F10
:40108000C8C1FF1FBCC1FF1FC7C1FF1FD8490040D749004000E100E080B483B000AF0F4B4FF400421A600E4B1B78FB710D4B1B78DBB203F04003DBB2002B03D0FB7943F01F
:4010C0000403FB71084B4FF400421A60FB7918460C37BD465DF8047B704700BF80E100E0C5C1FF1FB9C1FF1F00E100E080B483B000AF0A4B4FF400421A60094B1B78FB71CE
:40110000074B00221A70074B4FF400421A60FB7918460C37BD465DF8047B704780E100E0C5C1FF1F00E100E080B400AF0B4B4FF400421A600A4B00221A700A4B1B78DBB269
:4011400023F00103DAB2074B1A70074B4FF400421A60BD465DF8047B704700BF80E100E0C4C1FF1FC5C1FF1F00E100E080B400AF0B4B4FF400421A600A4B00221A700A4B7B
:401180001B78DBB223F00203DAB2074B1A70074B4FF400421A60BD465DF8047B704700BF80E100E0C6C1FF1FC5C1FF1F00E100E080B483B000AF0346FB7101BE0C37BD46D6
:4011C0005DF8047B704700BF80B582B000AF786008E00C4B1B68184600F01EF97B68A3F500437B607B68B3F5004FF2D8064B1B687A6802FB03F3184600F00EF90837BD4613
:4012000080BD00BF18C1FF1F10C1FF1F80B584B000AF03463960FB710F4B1B68FB60FB791F2B02D90020FFF7C3FFFB7903F01F0310339B00FA6813441B68BB60FB7903F098
:401240001F0310339B00FA6813443A681A60BB6818461037BD4680BD08ED00E080B582B000AF03460A46FB711346BB71BB79072B02D90020FFF79CFFFB791F2B02D9002071
:40128000FFF796FFFB7903F01F0303F1604303F56443BA795201D2B21A700837BD4680BD80B485B000AF0346FB710B4B1B78DBB223F01003FB730849FB791B01DBB203F099
:4012C0001003DAB2FB7B1343DBB20B701437BD465DF8047B704700BF5051004080B500AF054B1B78002B04D100F008F8024B01221A7000F023F880BDA9C1FF1F80B400AF9E
:40130000094B72221A70094B20221A70084B06221A70084B47221A70074B00221A70BD465DF8047B704700BF8D6400408C6400402F6400403F6400408E64004080B582B0D5
:4013400000AF00F071F80346FB71104A0F4B1B78DBB243F02003DBB213700D4A0C4B1B78DBB243F01003DBB213700A4A094B1B78DBB243F01003DBB2137000F033F8FB79A5
:40138000184600F055F80837BD4680BD9D6400409C6400409E64004080B400AF034B1B78DBB21846BD465DF8047B70476E64004080B483B000AF0346FB7100BF074B1B7892
:4013C000DBB203F00403002BF8D1054AFB7913700C37BD465DF8047B704700BF6E6400404E64004080B400AF094A094B1B78DBB243F00103DBB21370064A064B1B78DBB2E6
:4014000043F00103DBB21370BD465DF8047B7047A2430040B24300400230800803D000BF01380046FCD17047EFF3108072B6704780F31088704700BF014B1868704700BF1A
:401440007CC1FF1F0E4B70B51E460E4C0025E41AA410A54204D056F8253098470135F8E700F0DEF8084B094C1E46E41AA4100025A54204D056F8253098470135F8E770BD84
:401480002C1600002C1600002C1600003416000010B5431E0A44914204D011F8014B03F8014FF8E710BD0000000000004D617374657220436F64652052756E6E696E6700AD
:4014C0005472616E7366657220686173206265656E2068616C7465642E00000053686F7274205472616E73666572204572726F7200000000536C61766520646964206E6FE9
:40150000742061636B207468652061646472657373000000493243204D6173746572206C6F7374206172626974726174696F6E005472616E7366657220696E2070726F6782
:401540007265737300000000F0010000E8010000E0010000D8010000D0010000D0010000D0010000D0010000A0C1FF1FA0C1FF1FA0C1FF1FA0C1FF1FA0C1FF1FA0C1FF1FDC
:40158000A0C1FF1FA0C1FF1FA0C1FF1FA0C1FF1FA0C1FF1FA0C1FF1FA0C1FF1FA0C1FF1FA0C1FF1F00000048080000481802004810000048180000489800004818010048C1
:4015C000980100483802004848020048C802004848030048C803004848040048C804004848050048C805004848060048C806004848070048C807004848080048C8080048E2
:4016000048090048C8090048480A0048C80A0048480B0048C80B0048480C004843000000F8B500BFF8BC08BC9E4670471D02000079050000F8B500BFF8BC08BC9E46704714
:40164000F90100005816000008C1FF1F7800000050000000000000000000000000366E01C05D0000180000000000E02E00000000000000000000000000000000000000006B
:401680000000000000000000000000001C160000000000000000000000000000000000000000000000000000000000000000000000000000000000000000000000000000F8
:4016C0000000000000000000000000001CC1FF1F000000000000000000000000000000000000000000000000000000000000000000000000000000000000000000000000EF
:4017000000000000000000000000000000000000000000000000000000000000000000000000000000000000000000000000000000000000000000000000000000000000A9
:401740000000000000000000000000000000000000000000000000000000000000000000000000000000000000000000000000000000000000000000000000000000000069
:401780000000000000000000000000000000000000000000000000000000000000000000000000000000000000000000000000000000000000000000000000000000000029
:4017C00000000000000000000000000000000000000000000000000000000000000000000000000000000000000000000000000000000000000000000000000000000000E9
:020000040001F9
:0200000480007A
:4000000080000000400000002030000030000000000000C00000000000010000000002000400000000000800000000000000020000000000010000000000000001000000AD
:400040000100000000000000040002000101080000000000000005100000000000000000000000000000000000000000180000000404000400000001000000000000000035
:400080000000000000000000000000000000000000000000000000003F3C000233180C000008000001000023020400001F00204000002340081000001C3F2300042700187F
:4000C0000C1C00210300000410002C380F40001F0000A8800000011042010600050C000E11FFFFFF62A0F0410C000000000002130404040400000001000000000000400278
:4001000000103010001010120000000000000000000000000000000080142048E0070000E0180000400020002006C020130A0450001800000000080713070C000A00140020
:400140000000150703001406101800060F01E06000202000000001406203000000E0B0C02AFFFFFF0000F0440C000000010000000404040400000001000000000000C00059
:400180000000400200000000000000000000000000000000000000001000400000002000008003131000AC000000000C0C2C7143007100060900D00000000008DC002200ED
:4001C0001471000E000000000000E0301F0F00C00088082000000004020000000040000000FF07FF4020F0050800000000000000040404000000000140A8402000000000C1
:400200000000000000000000000000000000000000000000000000000000000000000000000000000000000000000000000000000000000038720F00010000000000000004
:40024000000000000000010000000000000000000000000000000000000000000000000000000000000000000000000000000000000000000000000000000000000000007D
:40028000000000000000000000000000000000000000000000000000000000000000000000000000000000000000000000000000000000000000000000000000000000003E
:4002C0004000000080000000000000000000000000000000000000000000000000000000C0000000000000000000000000000000000000200000000000000000000000005E
:4003000000000000000000000000000000000000000000000000000000000000000000000000000001000400000000000000000000000000000000000000000000000000B8
:40034000000000000000000000000000000000000000000000000000400000208000000000000000000000000000000000000000000000000000000000000000000000009D
:40038000000000000000000000000000000000000000000000000000000000000000000000000000000000000000000000000000000000000000000000000000000000003D
:4003C000100000002000000000000000000000000000000000000000000000000000000030000000000000000000000000000000000000000000000000000000000000009D
:400400000000000000000000000000000E000000000000000000000000000000000000000000000000000300000000000000000000000000000000000000000000000000AB
:40044000000000000000000000000000000000000000000000000000000000000000000030000000000000000000000000000000000000000000000000000000000000004C
:40048000000000000000000000000000000000000000000000000000000000000000000000000000000000000000000000000000000000000000000000000000000000003C
:4004C00000000000000000000000000000000000000000000000000000000000000000003000000000000000000000000000000000000000000000000000000000000000CC
:4005000000000000000000000000000000000000000000000000000000000000000000000000000000000000000000000000000000000000000000000000000000000000BB
:400540000000000000000000000000000000010000000000000000000000000000000100300000000000000000000000000000000000000000000000004000000000000009
:400580000000000000000000000000000000000000000000000000000000000000000000000000000000000000000000000000000000000000000400000000000000000037
:4005C000000000000000000000000000000000000040000000000000100000002000000000000000000000000000000000000000000000000000000000000000000000008B
:4006000000000000000000000000000000000000000000000000000000000000000000000000000000000100000000000000000000000000000000000000000000000000B9
:40064000000000000000000000000000000000000000000000000000000000000000000000000000000000000000000000000000000000000000000000000000000000007A
:400680000000000000000000000002000C0000000000000000000000000000000000010000000000000000000000000000000000000000000000000000000000000000002B
:4006C00000000000000000000000000000000000000000000000000000000000000000000000000000000000000000000000000000000000000000000000000000000000FA
:4007000000000000000000000000000000000000000000000000000000000000000000000000000000000000000000000000000000000100000000000000000000000000B8
:400740000000000000000000000000000000000000000000000000000000000000000000000000000000000000000000000000000000000000000000000000000000000079
:400780000000000000000000000000000000000000000000000000000000000000000000000000000000000000000000000000000000010000000000000000000000000038
:4007C0000000000000000000000000000000000000000000000000000000000000000000000000000000000000000000000000000000000000000000002244004000002033
:4008000000000000000000000000000000000000000000000000000000000000000000000000000000000000000000000000000000000000000000000000000000000000B8
:400840000000000000000000800000A00014000104221100004400002201002200140000040110A0206000020004480600000004044000A000000000800010090000000065
:400880002801400000000001402000800000000001040800000000000000000800000000000100000002000000000000008000040094001000000000B400012000000000D9
:4008C00000000000000000000000000000000002108000000000000000002801041080000010000104004014430200000000008000001200000000004820000300000000FE
:400900000000000000000000ED00AF006F00000000000F000F008F000D000C000000810030000000000000000800000000000000000000000000000000000000000000002D
:400940000000000000000000801100100012200201880000008802000020020A002000080020420000180008020314000080002804004080000200080B00411000200108A5
:4009800004130000000020000000002800000020002100010002000000100200001020200001500400000000000000000000000000000000000000000000000000000000DD
:4009C00000000000000000000000000000000000000000000000000000000000000000000000000000000000000000000000000000000000000000000000000000000000F7
:400A00000000000000000000FF00AD006F0000000000AD00EF0027002600040000000F0000000000000000000000000000000000000000000000000000000000000000009F
:400A40000000000000000000000000000000000000000000000000000000000000000000000000000000000000000000000000000000100000000000000000000000000066
:400A800000000000000000000000000000000000000000000000000000000000000000000000000000000000000000000000000000008000000000000000000000000000B6
:400AC00000000000000000000000000000000000000000000000000000000000000010000000000000000000000000000000000000000000000000000000000000000000E6
:400B000000000000000000000000000000000000000000000000000000000000000000000000000000000000000000000000000000000000000000000000000000000000B5
:400B40000000000000000000000000000000000000000000000000000000000000001000000000000000000000000000000000000000000000000000000000000000000065
:400B80000000000000000000000000000000000000000000000000000000000000000000000000000000000000000000000000000000000000000000000000000000000035
:400BC00000000000000000000000000000000000000000000000000000000000000000000000000000000000000000000000000000000000000000000000000000000000F5
:400C000000000000000010000000000000000000000000000000000000000000000000000000000000000000000000000000000000000000000000000000000000000000A4
:400C40000000000000000000000000000000000000000000000000000000000000000000000000000000000000000000000000000000000000000000000000000000000074
:400C80000000000000000000000000000000000000000000000020000000000000000000000000000000000000000000000000000000000000000000000000000000000014
:400CC00000000000000000000000300030000000000B0B0000000000001010000000000080004080800080000000000000000000000000000000000000000000000000001E
:400D000000000000000000000000000000000000000000000000000000000000000000000000000000000000000000000000000000000000000000000000000000000000B3
:400D40000000000000000000000000000000000000000000000000000000000000000000000000000000000000000000000000000000000000000000000000000000000073
:400D80000000000000000000000000000000000000000000000000000000000000000000000000000000000000000000000000000000000000000000000000000000000033
:400DC00000000000000000000000000000000000000000000000000000000000000000000000000000000000000000000000000000000000000000000000000000000000F3
:0200000490006A
:0400000000004004B8
:0200000490105A
:04000000BC90ACAF55
:0200000490303A
:020000003AC5FF
:0200000490402A
:4000000000000000000000000000000000000000000000000000000000000000000000000000000000000000000000000000000000000000000000000000000000000000C0
:400040000000000000000000000000000000000000000000000000000000000000000000000000000000000000000000000000000000000000000000000000000000000080
:0200000490501A
:0C00000000012E13306900012E1B6B2E36
:00000001FF